:100000000C942B350C945A350C945A350C945A3563
:100010000C945A350C945A350C945A350C945A3524
:100020000C945A350C945A350C945A350C945A3514
:100030000C945A350C945A350C945A350C945A3504
:100040000C945A350C945A350C947E8E0C945A3577
:100050000C947B910C94FA910C945A350C945A356B
:100060000C945A350C945A350C94D27E0C945A3513
:100070000C94B2910C9445920C945A350C945A35C8
:100080000C945A350C945A350C945A353D703F7087
:10009000417043704570477049704B704D704F70A0
:1000A0005170958F9A8F9F8FA98FD78FB38FBB8FEA
:1000B000C38FCD8FF48FF78FEA8FEE8F0E90FB8F6B
:1000C000FF8F059009900000000000000000000074
:1000D000821024318641C749C749C749C749C74922
:1000E000C749C749C749C749C749C749C749C74990
:1000F000C749C749C749C749C749C749C749C74980
:10010000C749C749C749C749C749C749C749C7496F
:100110008641243182100000000000000000000031
:1001200000000000000041084539C749C749C749D8
:10013000C749C749C749C749C749C749C749C7493F
:10014000C749C749C749C749C749C749C749C7492F
:10015000C749C749C749C749C749C749C749C7491F
:10016000C749C749C749C749C749C749C749C7490F
:100170004539410800000000000000000000821026
:10018000A641C749C749C749C749C749C749C74918
:10019000C749C749C749C749C749C749C749C749DF
:1001A000C749C749C749C749C749C749C749C749CF
:1001B000C749C749C749C749C749C749C749C749BF
:1001C000C749C749C749C749C749C749A641821056
:1001D0000000000000004108A641C749C749C749BF
:1001E000C749C749C749C749C749C749C749C7498F
:1001F000C749C749C749C749C749C749C749C7497F
:10020000C749C749C749C749C749C749C749C7496E
:10021000C749C749C749C749C749C749C749C7495E
:10022000C749C749C749C749A6414108000000005E
:100230004539C749C749C749C749C749C749C749D0
:10024000C749C749C749C749C749C749C749C7492E
:10025000C749C749C749C749C749C749C749C7491E
:10026000C749C749C749C749C749C749C749C7490E
:10027000C749C749C749C749C749C749C749C749FE
:10028000C749C749453900008210C749C749C7490E
:10029000C749C749C749C749C749C749C749C749DE
:1002A000C749C749C749C749C749C749C749C749CE
:1002B000C749C749C749C749C749C749C749C749BE
:1002C000C749C749C749C749C749C749C749C749AE
:1002D000C749C749C749C749C749C749C749C7499E
:1002E00082102431C749C749C749C749C749C749C7
:1002F000C749C749C749C749C749C749C749C7497E
:10030000C749C749C749C749C749C749C749C7496D
:10031000C749C749C749C749C749C749C749C7495D
:10032000C749C749C749C749C749C749C749C7494D
:10033000C749C749C749C749C74924318641C74941
:10034000C749C749C749C749C749C749C749C7492D
:10035000C749C749C749C749C749C749C749C7491D
:10036000C749C749C749C749C749C749C749C7490D
:10037000C749C749C749C749C749C749C749C749FD
:10038000C749C749C749C749C749C749C749C749ED
:10039000C749C7498641C749C749C749C749C74926
:1003A000C749C749C749C749C749C749C749C749CD
:1003B000C749C749C749C749C749C749C749C749BD
:1003C000C749C749C749C749C749C749C749C749AD
:1003D000C749C749C749C749C749C749C749C7499D
:1003E000C749C749C749C749C749C749C749C7498D
:1003F000C749C749C749C749C749C749C749C7497D
:10040000C749C749C749C749C749C749C749C7496C
:10041000C749C749C749C749C749C749C749085212
:10042000285AC749C749C749C749C749C749C749DA
:10043000C749C749C749C749C749C749C749C7493C
:10044000C749C749C749C749C749C749C749C7492C
:10045000C749C749C749C749C749C749C749C7491C
:10046000C749C749C749C749C749C749C749C7490C
:10047000C749C749C749495A38CE3CEF4D7BC749A0
:10048000C749C749C749C749C749C749C749C749EC
:10049000C749C749C749C749C749C749C749C749DC
:1004A000C749C749C749C749C749C749C749C749CC
:1004B000C749C749C749C749C749C749C749C749BC
:1004C000C749C749C749C749C749C749C749285A3A
:1004D00038CEFFFFFFFF5DEF2C73C749C749C749FF
:1004E000C749C749C749C749C749C749C749C7498C
:1004F000C749C749C749C749C749C749C749C7497C
:10050000C749C749C749C749C749C749C749C7496B
:10051000C749C749C749C749C749C749C749C7495B
:10052000C749C749C749285218C6FFFFFFFFFFFF49
:10053000FFFF7DEF0C6BC749C749C749C749C7498A
:10054000C749C749C749C749C749C749C749C7492B
:10055000C749C749C749C749C749C749C749C7491B
:10056000C749C749C749C749C749C749C749C7490B
:10057000C749C749C749C749C749C749C749285291
:1005800018C6FFFFFFFFFFFFFFFFFFFFFFFF5DEF4D
:100590000C73C749C749C749C749C749C749C7496C
:1005A000C749C749C749C749C749C749C749C749CB
:1005B000C749C749C749C749C749C749C749C749BB
:1005C000C749C749C749C749C749C749C749C749AB
:1005D000C749C749C7492852F7C5FFFFFFFFFFFFBB
:1005E000FFFFFFFFFFFFFFFFFFFF3CEFEB6AC74985
:1005F000C749C749C749C749C749C749C749C7497B
:10060000C749C749C749C749C749C749C749C7496A
:10061000C749C749C749C749C749C749C749C7495A
:10062000C749C749C749C749C749C749C749085200
:10063000F7C5FFFFFFFFFFFFFFFFFFFFFFFFFFFF0C
:10064000FFFFFFFFFFFF75B5C749C749C749C74946
:10065000C749C749C749C749C749C749C749C7491A
:10066000C749C749C749C749C749C749C749C7490A
:10067000C749C749C749C749C749C749C749C749FA
:10068000C749C749C7490852D7BDFFFFFFFFFFFF52
:10069000FFFFFFFFFFFFFFFFFFFFFFFFFFFFFFFF6A
:1006A000F3A4C749C749C749C749C749C749C74943
:1006B000C749C749C749C749C749C749C749C749BA
:1006C000C749C749C749C749C749C749C749C749AA
:1006D000C749C749C749C749C749C749C749085250
:1006E000B6BDFFFFFFFFFFFFFFFFFFFFFFFFFFFFA5
:1006F000FFFFFFFFFFFFFFFF3CE7AA62C749C749B3
:10070000C749C749C749C749C749C749C749C74969
:10071000C749C749C749C749C749C749C749C74959
:10072000C749C749C749C749C749C749C749C74949
:10073000C749C749C7492852B6BDFFFFFFFFDFFFC2
:10074000AE83495A8E7B59CEFFFFFFFFFFFFFFFFAD
:10075000FFFFFFFF9EF73094C749C749C749C74904
:10076000C749C749C749C749C749C749C749C74909
:10077000C749C749C749C749C749C749C749C749F9
:10078000C749C749C749C749C749C749C74908529F
:1007900096BDFFFFFFFFFFFFDFFF2C73C749C7496F
:1007A000E75114ADFFFFFFFFFFFFFFFFFFFFDFFF7C
:1007B000CF83C749C749C749C749C749C749C74977
:1007C000C749C749C749C749C749C749C749C749A9
:1007D000C749C749C749C749C749C749C749C74999
:1007E000C749C749C749085275B5FFFFFFFFFFFF5B
:1007F000FFFFFFFF7194C749C749C749085279D61F
:10080000FFFFFFFFFFFFFFFFFBE6495AC749C7494C
:10081000C749C749C749C749C749C749C749C74958
:10082000C749C749C749C749C749C749C749C74948
:10083000C749C749C749C749C749C749C749E75110
:1008400055B5FFFFFFFFFFFFFFFFFFFFFFFFBADE12
:100850002852C749C749C749EF8BFFFFFFFFFFFF7A
:10086000FFFFFFFFB2A4C749C749C749C749C749E6
:10087000C749C749C749C749C749C749C749C749F8
:10088000C749C749C749C749C749C749C749C749E8
:10089000C749C749C749C749F3ACFFFFFFFFFFFF7F
:1008A000FFFFFFFFFFFFFFFFFFFF96BD2852C74975
:1008B000C749CB6A3CEFDFFFFFFFFFFFFFFF38CEEA
:1008C000E749C749C749C749C749C749C749C74988
:1008D000C749C749C749C749C749C749C749C74998
:1008E000C749C749C749C749C749C749C749C74988
:1008F000C74955B5FFFFFFFFFFFFFFFFFFFFFFFFEA
:10090000FFFFFFFFFFFFBADE108C8A62E749085243
:100910003094FFFFFFFFFFFF7194C749C749C749E4
:10092000C749C749C749C749C749C749C749C74947
:10093000C749C749C749C749C749C749C749C74937
:10094000C749C749C749C749C749C7492852F7C511
:10095000FFFFFFFFFFFFFFFFFFFFFFFFFFFFFFFFA7
:10096000FFFFFFFF3CE7495AB6BD7DEFFFFFFFFFEA
:10097000D7BD2852C749C749C749C749C749C74909
:10098000C749C749C749C749C749C749C749C749E7
:10099000C749C749C749C749C749C749C749C749D7
:1009A000C749C749C749C749285218CEFFFFFFFFAB
:1009B000FFFFFFFFFFFFFFFFFFFFFFFFFFFFBEF790
:1009C00071947DEFFFFFFFFFD7C52852C7494D73D4
:1009D0002852C749C749C749C749C749C749C7492D
:1009E000C749C749C749C749C749C749C749C74987
:1009F000C749C749C749C749C749C749C749C74977
:100A0000C749C749285238CEFFFFFFFFFFFFFFFF4E
:100A1000FFFFFFFFFFFFFFFFFFFFDFFFFFFFFFFF06
:100A200018C62852C7494D73BEF7108CC749C7492D
:100A3000C749C749C749C749C749C749C749C74936
:100A4000C749C749C749C749C749C749C749C74926
:100A5000C749C749C749C749C749C749C749C74916
:100A6000285238CEFFFFFFFFFFFFFFFFFFFFFFFF12
:100A7000FFFFFFFFFFFFFFFF38CEE751C749C74920
:100A800059CE7DEFCB6AC749C749C749C749C7494E
:100A9000C749C749C749C749C749C749C749C749D6
:100AA000C749C749C749C749C749C749C749C749C6
:100AB000C749C749C749C749C749C749495A38CE2D
:100AC000FFFFFFFFFFFFFFFFFFFFFFFFFFFFFFFF36
:100AD00018CE2852C749C749C749495AAA62C749C7
:100AE000C749C749C749C749C749C749C749C74986
:100AF000C749C749C749C749C749C749C749C74976
:100B0000C749C749C749C749C749C749C749C74965
:100B1000C749C749C749C749495A59CEFFFFFFFFCF
:100B2000FFFFFFFFFFFFFFFF18CE495AC749C74924
:100B3000C749C749085230940852C749C749C749ED
:100B4000C749C749C749C749C749C749C749C74925
:100B5000C749C749C749C749C749C749C749C74915
:100B6000C749C749C749C749C749C749C749C74905
:100B7000C749C749495A9AD6FFFFFFFFFFFFFFFF4A
:100B800059CE495AC749C749C749C749C749CB621E
:100B90009EF76D7BC749C749C749C749C749C74978
:100BA000C749C749C749C749C749C749C749C749C5
:100BB000C749C749C749C749C749C749C749C749B5
:100BC000C749C749C749C749C749C749C749C749A5
:100BD000495A9AD6FFFFFFFF79D6285AC749C74915
:100BE000C749C749C749C749C749EB6A0852C749F6
:100BF000C749C749C749C749C749C749C749C74975
:100C0000C749C749C749C749C749C749C749C74964
:100C1000C749C749C749C749C749C749C749C74954
:100C2000C749C749C749C749C749C749695A59CE7A
:100C300038CE495AC749C749C749C749C749C749AB
:100C40002C733094C749C749C749C749C749C749E1
:100C5000C749C749C749C749C749C749C749C74914
:100C6000C749C749C749C749C749C749C749C74904
:100C7000C749C749C749C749C749C749C749C749F4
:100C8000C749C749C749C749E751E751C749C74994
:100C9000C749C749C749C749285218C634ADE749AB
:100CA000E7490852C749C749C749C749C749C7495A
:100CB000C749C749C749C749C749C749C749C749B4
:100CC000C749C749C749C749C749C749C749C749A4
:100CD000C749C749C749C749C749C749C749C74994
:100CE000C749C749C749C749C749C749C749C74984
:100CF000C749C7492852E749085238CE719CC749AD
:100D0000C749C749C749C749C749C749C749C74963
:100D1000C749C749C749C749C749C749C749C74953
:100D2000C749C749C749C749C749C749C749C74943
:100D3000C749C749C749C749C749C749C749C74933
:100D4000C749C749C749C749C749C749C749C74923
:100D5000C749C7498E838A62C749C749C749C74936
:100D6000C749C749C749C749C749C749C749C74903
:100D7000C749C749C749C749C749C749C749C749F3
:100D8000C749C749C749C749C749C749C749C749E3
:100D9000C749C749C749C749C749C749C749C749D3
:100DA000C749C749C749C749C749C749C749C749C3
:100DB000C749C749C749C749C749C749C749C749B3
:100DC000C749C749C749C7498641C749C749C749EC
:100DD000C749C749C749C749C749C749C749C74993
:100DE000C749C749C749C749C749C749C749C74983
:100DF000C749C749C749C749C749C749C749C74973
:100E0000C749C749C749C749C749C749C749C74962
:100E1000C749C749C749C749C749C749C749C74952
:100E200086412431C749C749C749C749C749C74946
:100E3000C749C749C749C749C749C749C749C74932
:100E4000C749C749C749C749C749C749C749C74922
:100E5000C749C749C749C749C749C749C749C74912
:100E6000C749C749C749C749C749C749C749C74902
:100E7000C749C749C749C749C74924318210C7492B
:100E8000C749C749C749C749C749C749C749C749E2
:100E9000C749C749C749C749C749C749C749C749D2
:100EA000C749C749C749C749C749C749C749C749C2
:100EB000C749C749C749C749C749C749C749C749B2
:100EC000C749C749C749C749C749C749C749C749A2
:100ED000C749C749821000004539C749C749C749B2
:100EE000C749C749C749C749C749C749C749C74982
:100EF000C749C749C749C749C749C749C749C74972
:100F0000C749C749C749C749C749C749C749C74961
:100F1000C749C749C749C749C749C749C749C74951
:100F2000C749C749C749C749C749C74945390000E3
:100F300000004108A641C749C749C749C749C74931
:100F4000C749C749C749C749C749C749C749C74921
:100F5000C749C749C749C749C749C749C749C74911
:100F6000C749C749C749C749C749C749C749C74901
:100F7000C749C749C749C749C749C749C749C749F1
:100F8000C749C749A641410800000000000082107F
:100F9000A641C749C749C749C749C749C749C749FA
:100FA000C749C749C749C749C749C749C749C749C1
:100FB000C749C749C749C749C749C749C749C749B1
:100FC000C749C749C749C749C749C749C749C749A1
:100FD000C749C749C749C749C749C749A641821038
:100FE0000000000000000000000061084539C7490A
:100FF000C749C749C749C749C749C749C749C74971
:10100000C749C749C749C749C749C749C749C74960
:10101000C749C749C749C749C749C749C749C74950
:10102000C749C749C749C749C749C749C749C74940
:10103000C749C749453941080000000000000000C9
:101040000000000000000000821024318641C749E2
:10105000C749C749C749C749C749C749C749C74910
:10106000C749C749C749C749C749C749C749C74900
:10107000C749C749C749C749C749C749C749C749F0
:10108000C749C749C749C749864124318210000072
:101090000000000000000000000000000000000050
:1010A0002008A039A08B00BDA0DDE0DDE0DDE0DDA3
:1010B000E0DDE0DDE0DDE0DDE0DDE0DDE0DDE0DD48
:1010C000E0DDE0DDE0DDE0DDE0DDE0DDE0DDE0DD38
:1010D000E0DDE0DDE0DDE0DDE0DDE0DDE0DDE0DD28
:1010E000A0DD00BDA08BA03920080000000000009A
:1010F0000000000000000000202940A4E0DDE0DD49
:10110000E0DDE0DDE0DDE0DDE0DDE0DDE0DDE0DDF7
:10111000E0DDE0DDE0DDE0DDE0DDE0DDE0DDE0DDE7
:10112000E0DDE0DDE0DDE0DDE0DDE0DDE0DDE0DDD7
:10113000E0DDE0DDE0DDE0DDE0DDE0DDE0DDE0DDC7
:10114000E0DD40A4202900000000000000000000B5
:10115000A04140C5E0DDE0DDE0DDE0DDE0DDE0DD3B
:10116000E0DDE0DDE0DDE0DDE0DDE0DDE0DDE0DD97
:10117000E0DDE0DDE0DDE0DDE0DDE0DDE0DDE0DD87
:10118000E0DDE0DDE0DDE0DDE0DDE0DDE0DDE0DD77
:10119000E0DDE0DDE0DDE0DDE0DDE0DDE0DD40C51F
:1011A000A039000000000000202940C5E0DDE0DD9E
:1011B000E0DDE0DDE0DDE0DDE0DDE0DDE0DDE0DD47
:1011C000E0DDE0DDE0DDE0DDE0DDE0DDE0DDE0DD37
:1011D000E0DDE0DDE0DDE0DDE0DDE0DDE0DDE0DD27
:1011E000E0DDE0DDE0DDE0DDE0DDE0DDE0DDE0DD17
:1011F000E0DDE0DDE0DDE0DDE0DD40C520290000F0
:10120000200840A4E0DDE0DDE0DDE0DDE0DDE0DD64
:10121000E0DDE0DDE0DDE0DDE0DDE0DDE0DDE0DDE6
:10122000E0DDE0DDE0DDE0DDE0DDE0DDE0DDE0DDD6
:10123000E0DDE0DDE0DDE0DDE0DDE0DDE0DDE0DDC6
:10124000E0DDE0DDE0DDE0DDE0DDE0DDE0DDE0DDB6
:10125000E0DDE0DDE0DD40A42008A039C0DDE0DD18
:10126000E0DDE0DDE0DDE0DDE0DDE0DDE0DDE0DD96
:10127000E0DDE0DDE0DDE0DDE0DDE0DDE0DDE0DD86
:10128000E0DDE0DDE0DDE0DDE0DDE0DDE0DDE0DD76
:10129000E0DDE0DDE0DDE0DDE0DDE0DDE0DDE0DD66
:1012A000E0DDE0DDE0DDE0DDE0DDE0DDE0DDE0DD56
:1012B000C0DDA039A08BE0DDE0DDE0DDE0DDE0DDDC
:1012C000E0DDE0DDE0DDE0DDE0DDE0DDE0DDE0DD36
:1012D000E0DDE0DDE0DDE0DDE0DDE0DDE0DDE0DD26
:1012E000E0DDE0DDE0DDE0DDE0DDE0DDE0DDE0DD16
:1012F000E0DDE0DDE0DDE0DDE0DDE0DDE0DDE0DD06
:10130000E0DDE0DDE0DDE0DDE0DDE0DDA08B00BD87
:10131000E0DDE0DDE0DDE0DDE0DDE0DDE0DDE0DDE5
:10132000E0DDE0DDE0DDE0DDE0DDE0DDE0DDE0DDD5
:10133000E0DDE0DDE0DDE0DDE0DDE0DDE0DDE0DDC5
:10134000E0DDE0DDE0DDE0DDE0DDE0DDE0DDE0DDB5
:10135000E0DDE0DDE0DDE0DDE0DDE0DDE0DDE0DDA5
:10136000E0DDE0DDE0DD00BDA0DDE0DDE0DDE0DDD5
:10137000E0DDE0DDE0DDE0DDE0DDE0DDE0DDE0DD85
:10138000E0DDE0DDE0DDE0DDE0DDE0DDE0DDE0DD75
:10139000E0DDE0DDE0DDE0DDE0DDE0DDE0DDE0DD65
:1013A000E0DDE0DDE0DDE0DDE0DDE0DDE0DDE0DD55
:1013B000E0DDE0DDE0DDE0DDE0DDE0DDE0DDE0DD45
:1013C000A0DDE0DDE0DDE0DDE0DDE0DDE0DDE0DD75
:1013D000E0DDE0DDE0DDE0DDE0DDE0DDE0DDE0DD25
:1013E000E0DDE0DDE0DDE0DDE0DDE0DDE0DDE0DD15
:1013F000E0DDE0DD02E6E0DDE0DDE0DDE0DDE0DDDA
:10140000E0DDE0DDE0DDE0DDE0DDE0DDE0DDE0DDF4
:10141000E0DDE0DDE0DDE0DDE0DDE0DDE0DDE0DDE4
:10142000E0DDE0DDE0DDE0DDE0DDE0DDE0DDE0DDD4
:10143000E0DDE0DDE0DDE0DDE0DDE0DDE0DDE0DDC4
:10144000E0DDE0DDE0DDE0DDE0DDE0DDACEEDDFFB8
:1014500046E6E0DDE0DDE0DDE0DDE0DDE0DDE0DD35
:10146000E0DDE0DDE0DDE0DDE0DDE0DDE0DDE0DD94
:10147000E0DDE0DDE0DDE0DDE0DDE0DDE0DDE0DD84
:10148000E0DDE0DDE0DDE0DDE0DDE0DDE0DDE0DD74
:10149000E0DDE0DDE0DDE0DDE0DDE0DDE0DDE0DD64
:1014A000E0DDE0DDE1DD77F7FEFF24E6E0DDE0DD15
:1014B000E0DDE0DDE0DD03E6E1DDE0DDE0DDE0DD17
:1014C000E0DDE0DDE0DDE0DDE0DDE0DDE0DDE0DD34
:1014D000E0DDE0DDE0DDE0DDE0DDE0DDE0DDE0DD24
:1014E000E0DDE0DDE0DDE0DDE0DDE0DDE0DDE0DD14
:1014F000E0DDE0DDE0DDE0DDE0DDE0DDE0DD25E6B6
:10150000FEFF77F7E1DDE0DDE0DDE0DDE0DD68E670
:10151000BCFF11F7E0DDE0DDE0DDE0DDE0DDE0DD9A
:10152000E0DDE0DDE0DDE0DDE0DDE0DDE0DDE0DDD3
:10153000E0DDE0DDE0DDE0DDE0DDE0DDE0DDE0DDC3
:10154000E0DDE0DDE0DDE0DDE0DDE0DDE0DDE0DDB3
:10155000E0DDE0DDE0DDE0DD45E6DCFF8BEEE0DD5B
:10156000E0DDE0DDE0DD68E6DDFFDEFF8AEEE0DD08
:10157000E0DDE0DDE0DDE0DDE0DDE0DDE0DDE0DD83
:10158000E0DDE0DDE0DDE0DDE0DDE0DDE0DDE0DD73
:10159000E0DDE0DDE0DDE0DDE0DDE0DDE0DDE0DD63
:1015A000E0DDE0DDE0DDE0DDE0DDE0DDE0DDE0DD53
:1015B000E0DDE0DDE0DDE0DDE0DDE0DDE0DD89E691
:1015C000DDFFDEFF8AEEE0DDE0DDE0DDE0DDE0DD39
:1015D000E0DDE0DDE0DDE0DDE0DDE0DDE0DDE0DD23
:1015E000E0DDE0DDE0DDE0DDE0DDE0DDE0DDE0DD13
:1015F000E0DDE0DDE0DDE0DDE0DDE0DDE0DDE0DD03
:10160000E0DDE0DDE0DD25E669EE8BEE69E624E66F
:10161000E0DDE0DDE0DD68E6DDFFDEFF8AEEE0DD57
:10162000E0DDE0DDE0DDE0DDE0DDE0DDE0DDE0DDD2
:10163000E0DDE0DDE0DDE0DDE0DDE0DDE0DDE0DDC2
:10164000E0DDE0DDE0DDE0DDE0DDE0DDE0DDE0DDB2
:10165000E0DDE0DDE0DDE0DDE0DDE0DD47E656F7A2
:10166000DDFFFFFFFFFFFFFFDDFF55F746E6E0DD93
:10167000ABEEBCFF8AEEE0DDE0DDE0DDE0DDE0DDED
:10168000E0DDE0DDE0DDE0DDE0DDE0DDE0DDE0DD72
:10169000E0DDE0DDE0DDE0DDE0DDE0DDE0DDE0DD62
:1016A000E0DDE0DDE0DDE0DDE0DDE0DDE0DDE0DD52
:1016B000E0DDE0DDACEEFEFFFFFFDAFF93F771F750
:1016C00093F7DAFFFFFFFEFFACEEE0DD02E6E0DDC0
:1016D000E0DDE0DDE0DDE0DDE0DDE0DDE0DDE0DD22
:1016E000E0DDE0DDE0DDE0DDE0DDE0DDE0DDE0DD12
:1016F000E0DDE0DDE0DDE0DDE0DDE0DDE0DDE0DD02
:10170000E0DDE0DDE0DDE0DDE0DDE0DDABEEFFFFD4
:10171000FDFF4DF706EF06EF06EF06EF06EF4EF77B
:10172000FDFFFFFF8AEEE0DDE0DDE0DDE0DDE0DD96
:10173000E0DDE0DDE0DDE0DDE0DDE0DDE0DDE0DDC1
:10174000E0DDE0DDE0DDE0DDE0DDE0DDE0DDE0DDB1
:10175000E0DDE0DDE0DDE0DDE0DDE0DDE0DDE0DDA1
:10176000E0DDE0DD23E6BBFFFEFF2BF706EF06EF33
:1017700006EF06EF06EF06EF06EF4CF7FEFFBBFFA6
:1017800003E6E0DDE0DD24E6CDEE56F768E6E0DDD9
:10179000E0DDE0DDE0DDE0DDE0DDE0DDE0DDE0DD61
:1017A000E0DDE0DDE0DDE0DDE0DDE0DDE0DDE0DD51
:1017B000E0DDE0DDE0DDE0DDE0DDE0DDE0DDCDEE43
:1017C000FFFF93F706EF06EF06EF06EF06EF06EFD3
:1017D00006EF06EF06EF94F7FFFFACEEE0DD69E6FB
:1017E000DDFFFFFFDEFFABEEE0DDE0DDE0DDE0DDB5
:1017F000E0DDE0DDE0DDE0DDE0DDE0DDE0DDE0DD01
:10180000E0DDE0DDE0DDE0DDE0DDE0DDE0DDE0DDF0
:10181000E0DDE0DDE0DDE0DD56F7FFFF2AF706EF73
:1018200006EF06EF06EF06EF06EF06EF06EF06EF10
:101830002AF7FFFF55F7E0DD47E677F7CEEE25E61E
:10184000E0DDE0DDE0DDE0DDE0DDE0DDE0DDE0DDB0
:10185000E0DDE0DDE0DDE0DDE0DDE0DDE0DDE0DDA0
:10186000E0DDE0DDE0DDE0DDE0DDE0DDE0DDE0DD90
:1018700002E6BBFFDBFF07EF06EF06EF06EF06EF22
:1018800006EF06EF06EF06EF06EF28EFFDFF98F7ED
:10189000E1DDE0DDE0DDE0DDE0DDE0DDE0DDE0DD5F
:1018A000E0DDE0DDE0DDE0DDE0DDE0DDE0DDE0DD50
:1018B000E0DDE0DDE0DDE0DDE0DDE0DDE0DDE0DD40
:1018C000E0DDE0DDE0DDE0DDE0DD47E6FFFFB6FF87
:1018D00006EF06EF06EF06EF06EF06EF06EF06EF60
:1018E00006EF06EF28EFFDFF78F7E1DDE0DDE0DD54
:1018F000E0DDE0DDE0DDE0DDE0DDE0DDE0DDE0DD00
:10190000E0DDE0DDE0DDE0DDE0DDE0DDE0DDE0DDEF
:10191000E0DDE0DDE0DDE0DDE0DDE0DDE0DDE0DDDF
:10192000E0DDE0DD12F7FFFF4EF706EF06EF06EF12
:1019300006EF06EF06EF06EF06EF06EF06EF2BF7D2
:10194000FFFF54F7E0DDE0DDE0DDE0DDE0DDE0DDE0
:10195000E0DDE0DDE0DDE0DDE0DDE0DDE0DDE0DD9F
:10196000E0DDE0DDE0DDE0DDE0DDE0DDE0DDE0DD8F
:10197000E0DDE0DDE0DDE0DDE0DDE0DD24E6DDFF13
:10198000DBFF28EF06EF06EF06EF06EF06EF06EFA8
:1019900006EF06EF06EF06EF94F7FFFFACEEE0DD93
:1019A000E0DDE0DDE0DDE0DDE0DDE0DDE0DDE0DD4F
:1019B000E0DDE0DDE0DDE0DDE0DDE0DDE0DDE0DD3F
:1019C000E0DDE0DDE0DDE0DDE0DDE0DDE0DDE0DD2F
:1019D000E0DDE0DDE0DD34F7FFFF71F706EF06EF55
:1019E00006EF06EF06EF06EF06EF06EF06EF06EF4F
:1019F0004CF7FFFFBAFF02E6E0DDE0DDE0DDE0DD11
:101A0000E0DDE0DDE0DDE0DDE0DDE0DDE0DDE0DDEE
:101A1000E0DDE0DDE0DDE0DDE0DDE0DDE0DDE0DDDE
:101A2000E0DDE0DDE0DDE0DDE0DDE0DDE0DDACEEF1
:101A3000FFFFD9FF07EF06EF06EF06EF06EF06EF11
:101A400006EF06EF06EF07EF70F7FEFFDEFF69E631
:101A5000E0DDE0DDE0DDE0DDE0DDE0DDE0DDE0DD9E
:101A6000E0DDE0DDE0DDE0DDE0DDE0DDE0DDE0DD8E
:101A7000E0DDE0DDE0DDE0DDE0DDE0DDE0DDE0DD7E
:101A8000E0DDE0DDE0DDE0DD76F7FFFF94F707EF76
:101A900006EF06EF06EF06EF07EF2AEF6FF795F771
:101AA000DBFFFFFFDDFF8BEEE0DDE0DDE0DDE0DD15
:101AB000E0DDE0DDE0DDE0DDE0DDE0DDE0DDE0DD3E
:101AC000E0DDE0DDE0DDE0DDE0DDE0DDE0DDE0DD2E
:101AD000E0DDE0DDE0DDE0DDE0DDE0DDE0DDE0DD1E
:101AE00024E69AFFFFFFFFFF92F707EF06EF07EFED
:101AF0004EF7B8FFFEFFFFFFFFFFDCFF34F746E6BF
:101B0000E0DDE0DDE0DDE0DDE0DDE0DDE0DDE0DDED
:101B1000E0DDE0DDE0DDE0DDE0DDE0DDE0DDE0DDDD
:101B2000E0DDE0DDE0DDE0DDE0DDE0DDE0DDE0DDCD
:101B3000E0DDE0DDE0DDE0DD24E699FFFFFFFFFF13
:101B4000FFFFFFFF92F72BF7B8FFFFFFFFFF78F7CC
:101B5000CFEE67E603E6E0DDE0DDE0DDE0DDE0DDE1
:101B6000E0DDE0DDE0DDE0DDE0DDE0DDE0DDE0DD8D
:101B7000E0DDE0DDE0DDE0DDE0DDE0DDE0DDE0DD7D
:101B8000E0DDE0DDE0DDE0DDE0DDE0DDE0DDE0DD6D
:101B900002E699FFFFFFFFFFFFFFFFFFFFFFFFFFD1
:101BA000FEFFFFFF56F747E6E0DDE0DDE0DDE0DDCC
:101BB000E0DDE0DDE0DDE0DDE0DDE0DDE0DDE0DD3D
:101BC000E0DDE0DDE0DDE0DDE0DDE0DDE0DDE0DD2D
:101BD000E0DDE0DDE0DDE0DDE0DDE0DDE0DDE0DD1D
:101BE000E0DDE0DDE0DDE0DDE0DD02E6BCFFFFFFA3
:101BF000FFFFFFFFFFFFFFFFDDFFDCFFABEEE0DDE0
:101C0000E0DDE0DDE0DDE0DDE0DDE0DDE0DDE0DDEC
:101C1000E0DDE0DDE0DDE0DDE0DDE0DDE0DDE0DDDC
:101C2000E0DDE0DDE0DDE0DDE0DDE0DDE0DDE0DDCC
:101C3000E0DDE0DDE0DDE0DDE0DDE0DDE0DDE0DDBC
:101C4000E0DDE0DDE0DD67E6BCFFFFFFFFFFFFFF5B
:101C500055F745E624E6E0DDE0DDE0DDE0DDE0DD52
:101C6000E0DDE0DDE0DDE0DDE0DDE0DDE0DDE0DD8C
:101C7000E0DDE0DDE0DDE0DDE0DDE0DDE0DDE0DD7C
:101C8000E0DDE0DDE0DDE0DDE0DDE0DDE0DDE0DD6C
:101C9000E0DDE0DDE0DDE0DDE0DDE0DDE0DDE0DD5C
:101CA000E0DD47E6BCFFFFFF55F702E6E0DDE0DDE3
:101CB000E0DDE0DDE0DDE0DDE0DDE0DDE0DDE0DD3C
:101CC000E0DDE0DDE0DDE0DDE0DDE0DDE0DDE0DD2C
:101CD000E0DDE0DDE0DDE0DDE0DDE0DDE0DDE0DD1C
:101CE000E0DDE0DDE0DDE0DDE0DDE0DDE0DDE0DD0C
:101CF000E0DDE0DDE0DDE0DDE0DDE0DDE0DD46E68D
:101D0000CEEE02E6E0DDE0DDE0DDE0DDE0DDE0DDC1
:101D1000E0DDE0DDE0DDE0DDE0DDE0DDE0DDE0DDDB
:101D2000E0DDE0DDE0DDE0DDE0DDE0DDE0DDE0DDCB
:101D3000E0DDE0DDE0DDE0DDE0DDE0DDE0DDE0DDBB
:101D4000A0DDE0DDE0DDE0DDE0DDE0DDE0DDE0DDEB
:101D5000E0DDE0DDE0DDE0DDE0DDE0DDE0DDE0DD9B
:101D6000E0DDE0DDE0DDE0DDE0DDE0DDE0DDE0DD8B
:101D7000E0DDE0DDE0DDE0DDE0DDE0DDE0DDE0DD7B
:101D8000E0DDE0DDE0DDE0DDE0DDE0DDE0DDE0DD6B
:101D9000E0DDE0DDE0DDE0DDA0DD00BDE0DDE0DD9B
:101DA000E0DDE0DDE0DDE0DDE0DDE0DDE0DDE0DD4B
:101DB000E0DDE0DDE0DDE0DDE0DDE0DDE0DDE0DD3B
:101DC000E0DDE0DDE0DDE0DDE0DDE0DDE0DDE0DD2B
:101DD000E0DDE0DDE0DDE0DDE0DDE0DDE0DDE0DD1B
:101DE000E0DDE0DDE0DDE0DDE0DDE0DDE0DDE0DD0B
:101DF000E0DD00BDA08BE0DDE0DDE0DDE0DDE0DD8D
:101E0000E0DDE0DDE0DDE0DDE0DDE0DDE0DDE0DDEA
:101E1000E0DDE0DDE0DDE0DDE0DDE0DDE0DDE0DDDA
:101E2000E0DDE0DDE0DDE0DDE0DDE0DDE0DDE0DDCA
:101E3000E0DDE0DDE0DDE0DDE0DDE0DDE0DDE0DDBA
:101E4000E0DDE0DDE0DDE0DDE0DDE0DDA08BA04118
:101E5000C0DDE0DDE0DDE0DDE0DDE0DDE0DDE0DDBA
:101E6000E0DDE0DDE0DDE0DDE0DDE0DDE0DDE0DD8A
:101E7000E0DDE0DDE0DDE0DDE0DDE0DDE0DDE0DD7A
:101E8000E0DDE0DDE0DDE0DDE0DDE0DDE0DDE0DD6A
:101E9000E0DDE0DDE0DDE0DDE0DDE0DDE0DDE0DD5A
:101EA000E0DDE0DDC0DDA039200860A4E0DDE0DD9C
:101EB000E0DDE0DDE0DDE0DDE0DDE0DDE0DDE0DD3A
:101EC000E0DDE0DDE0DDE0DDE0DDE0DDE0DDE0DD2A
:101ED000E0DDE0DDE0DDE0DDE0DDE0DDE0DDE0DD1A
:101EE000E0DDE0DDE0DDE0DDE0DDE0DDE0DDE0DD0A
:101EF000E0DDE0DDE0DDE0DDE0DDE0DDE0DD40A4D3
:101F000020080000202940C5E0DDE0DDE0DDE0DD67
:101F1000E0DDE0DDE0DDE0DDE0DDE0DDE0DDE0DDD9
:101F2000E0DDE0DDE0DDE0DDE0DDE0DDE0DDE0DDC9
:101F3000E0DDE0DDE0DDE0DDE0DDE0DDE0DDE0DDB9
:101F4000E0DDE0DDE0DDE0DDE0DDE0DDE0DDE0DDA9
:101F5000E0DDE0DDE0DD40C52029000000000000FC
:101F6000A04140CDE0DDE0DDE0DDE0DDE0DDE0DD15
:101F7000E0DDE0DDE0DDE0DDE0DDE0DDE0DDE0DD79
:101F8000E0DDE0DDE0DDE0DDE0DDE0DDE0DDE0DD69
:101F9000E0DDE0DDE0DDE0DDE0DDE0DDE0DDE0DD59
:101FA000E0DDE0DDE0DDE0DDE0DDE0DDE0DD40C501
:101FB000A04100000000000000000000202960A4F3
:101FC000E0DDE0DDE0DDE0DDE0DDE0DDE0DDE0DD29
:101FD000E0DDE0DDE0DDE0DDE0DDE0DDE0DDE0DD19
:101FE000E0DDE0DDE0DDE0DDE0DDE0DDE0DDE0DD09
:101FF000E0DDE0DDE0DDE0DDE0DDE0DDE0DDE0DDF9
:10200000E0DDE0DDE0DD40A420290000000000006C
:1020100000000000000000002008A041A08B00BDCF
:10202000A0DDE0DDE0DDE0DDE0DDE0DDE0DDE0DD08
:10203000E0DDE0DDE0DDE0DDE0DDE0DDE0DDE0DDB8
:10204000E0DDE0DDE0DDE0DDE0DDE0DDE0DDE0DDA8
:10205000E0DDE0DDE0DDE0DDA0DD00BDA08BA0394E
:102060002008000000000000000000000000000048
:1020700000000000820804198629A731C731C73142
:10208000C731C731C731C731C731C731C731C73190
:10209000C731C731C731C731C731C731C731C73180
:1020A000C731C731C731C731C731C731C731C73170
:1020B000C731A731862904198208000000000000FA
:1020C0000000000000000000000041084521C73169
:1020D000C731C731C731C731C731C731C731C73140
:1020E000C731C731C731C731C731C731C731C73130
:1020F000C731C731C731C731C731C731C731C73120
:10210000C731C731C731C731C731C731C731C7310F
:10211000C731C73145214108000000000000000020
:10212000000082088729C731C731C731C731C7319D
:10213000C731C731C731C731C731C731C731C731DF
:10214000C731C731C731C731C731C731C731C731CF
:10215000C731C731C731C731C731C731C731C731BF
:10216000C731C731C731C731C731C731C731C731AF
:102170008729620800000000000041088629C73155
:10218000C731C731C731C731C731C731C731C7318F
:10219000C731C731C731C731C731C731C731C7317F
:1021A000C731C731C731C731C731C731C731C7316F
:1021B000C731C731C731C731C731C731C731C7315F
:1021C000C731C731C731C731C731C7318629410847
:1021D000000000004521C731C731C731C731C731C1
:1021E000C731C731C731C731C731C731C731C7312F
:1021F000C731C731C731C731C731C731C731C7311F
:10220000C731C731C731C731C731C731C731C7310E
:10221000C731C731C731C731C731C731C731C731FE
:10222000C731C731C731C731452100008208C731E6
:10223000C731C731C731C731C731C731C731C731DE
:10224000C731C731C731C731C731C731C731C731CE
:10225000C731C731C731C731C731C731C731C731BE
:10226000C731C731C731C731C731C731C731C731AE
:10227000C731C731C731C731C731C731C731C7319E
:10228000C731C73182080419C731C731C731C731D7
:10229000C731C731C731C731C731C731C731C7317E
:1022A000C731C731C731C731C731C731C731C7316E
:1022B000C731C731C731C731C731C731C731C7315E
:1022C000C731C731C731C731C731C731C731C7314E
:1022D000C731C731C731C731C731C731C731041919
:1022E0008629C731C731C731C731C731C731C73177
:1022F000C731C731C731C731C731C731C731C7311E
:10230000C731C731C731C731C731C731C731C7310D
:10231000C731C731C731C731C731C731C731C731FD
:10232000C731C731C731C731C731C731C731C731ED
:10233000C731C731C731C7318629A731C731C73146
:10234000C731C731C731C731C731C731C731C731CD
:10235000C731C731C731C731C731C731C731C731BD
:10236000C731C731C731C731C731C731C731C731AD
:10237000C731C731C731C731C731C731C731C7319D
:10238000C731C731C731C731C731C731C731C7318D
:10239000C731A731C731C731C731C731C731C7319D
:1023A000C731C731C731C731C731C731C731C7316D
:1023B000C731C731C731C731C731C731C731C7315D
:1023C000C731C731C731C731C731C731C731C7314D
:1023D000C731C731C731C731C731C731C731C7313D
:1023E000C731C731C731C731C731C731C731C7312D
:1023F000C731C731C731C731C731C731C731C7311D
:10240000C731C731C731C731C731C731C731C7310C
:10241000C731C731C731C731C731C731C731C731FC
:10242000C731C731C731C731C731C731C731C731EC
:10243000C731C731C731C731C731C731C731C731DC
:10244000C731C731C731C731C731C731C731C731CC
:10245000C731C731C731C731C731C731C731C731BC
:10246000C731C731C731C731C731C731C731C731AC
:10247000C731C731C731C731C731C8314D6375ADB9
:1024800059CECF73C731C731C731C731C731C73113
:10249000C731C731C731C731C731C731C731C7317C
:1024A000C731C731C731C731C731C731C731C7316C
:1024B000C731C731C731C731064A857A064AC731A5
:1024C000C731C731C731C731C731C731C731C7314C
:1024D000C731E831149DBEF7FFFFFBDEAB52C731B9
:1024E000C731C731C731C731C731C731C731C7312C
:1024F000C731C731C731C731C731C731C731C7311C
:10250000C731C731C731C731C731C731C731C7310B
:10251000C731265AE49AE49A857AE739C731C73138
:10252000C731C731C731C731C731C731728CFFFFDF
:10253000FFFF7DEFAB4AC731C731C731C731C73164
:10254000C731C731C731C731C731C731C731C731CB
:10255000C731C731C731C731C731C731C731C731BB
:10256000C731C731C731C731C731C731C731C48A55
:10257000E49AE49AA582C731C731C731C731C73160
:10258000C731C73149421CE7FFFFFFFFFBDEE831DF
:10259000C731C731C731C731C731C731C731C7317B
:1025A000C731C731C731C731C731C731C731C7316B
:1025B000C731C731C731C731C731C731C731C7315B
:1025C000C731C731C731C7312652E49AE49AC49261
:1025D000E741C731C731C731C731C731C7310C5B9C
:1025E000FFFFFFFFFFFFFFFF34A5E839C731C73109
:1025F000AB52CF73C731C731C731C731C731C731CC
:10260000C731C731C731C731C731C731C731C7310A
:10261000C731C731C731C731C731C731C731C731FA
:10262000C731C731265A857AE49AA482E739C7317F
:10263000C731C731C731C7314D63FFFFFFFFFFFF10
:10264000FFFFDFFF34A5E831AB52FBDE59CEC731C7
:10265000C731C731C731C731C731C731C731C731BA
:10266000C731C731C731C731C731C731C731C731AA
:10267000C731C731C731C731C731C731C731C7319A
:10268000C731465AE49AC48AC739C731C731C731FE
:10269000C731107CFFFFFFFFFFFFFFFFFFFFFFFFC2
:1026A000FBDE7DEFFFFF76ADC731C731C731C731E4
:1026B000C731C731C731C731C731C731C731C7315A
:1026C000C731C731C731C731C731C731C731C7314A
:1026D000C731C731C731C731C731C731C731465A92
:1026E000E49AC48AE739C731C731CF73DFFFFFFFF0
:1026F000FFFFFFFFFFFFFFFFFFFFFFFFFFFFBEF733
:102700004D63C731C731C731C731C731C731C73151
:10271000C731C731C731C731C731C731C731C731F9
:10272000C731C731C731C731C731C731C731C731E9
:10273000C731C731C731C731C731465AE49AA4827D
:10274000E739E8319ACEFFFFFFFFFFFFFFFFFFFFF2
:10275000FFFFFFFFFFFFFFFF149DC831C731C731E7
:10276000C731C731C731C731C731C731C731C731A9
:10277000C731C731C731C731C731C731C731C73199
:10278000C731C731C731C731C731C731C731C73189
:10279000C731C731C731465AE49AA482E7398A4A19
:1027A000BBD6FFFFFFFFFFFFFFFFFFFFFFFF1CE7A1
:1027B000728CE831C731C731C731C731C731C73132
:1027C000C731C731C731C731C731C731C731C73149
:1027D000C731C731C731C731C731C731C731C73139
:1027E000C731C731C731C731C731C731C731C73129
:1027F000C731465AE49AA482E7398B4A9AD6DBD687
:10280000DBDEF07B2D63EC5A2942C731C731C7317B
:10281000C731C731C731C731C731C731C731C731F8
:10282000C731C731C731C731C731C731C731C731E8
:10283000C731C731C731C731C731C731C731C731D8
:10284000C731C731C731C731C731AB4AC831465A22
:10285000E49AC48AE739E831E831E831C731C73151
:10286000C731C731C731C731C731C731C731C731A8
:10287000C731C731C731C731C731C731C731C73198
:10288000C731C731C731C731C731C731C731C73188
:10289000C731C731C731C731C731C731C731C73178
:1028A000C731CF73BEF7928CC831465AE49AA48AD6
:1028B000E741656A4662C731C731C731C731C731A1
:1028C000C731C731C731C731C731C731C731C73148
:1028D000C731C731C731C731C731C731C731C73138
:1028E000C731C731C731C731C731C731C731C73128
:1028F000C731C731C731C731C731F07BBEF7FFFFE2
:10290000DFFF9294E831465AE49AE492E49AE49A1A
:10291000656AC731C731C731C731C731C731C73120
:10292000C731C731C731C731C731C731C731C731E7
:10293000C731C731C731C731C731C731C731C731D7
:10294000C731C731C731C731C731C731C731C731C7
:10295000C731F07B9EF7FFFFFFFFFFFFDFFFEC5A61
:10296000C731C48AE49AE49AE49AE49A656AC73162
:10297000C731C731C731C731C731C731C731C73197
:10298000C731C731C731C731C731C731C731C73187
:10299000C731C731C731C731C731C731C731C73177
:1029A000C731C731C731C731C731CF73BEF7FFFF5A
:1029B000FFFFFFFFFFFF9EF78A4A265AE49AE49A38
:1029C000E49AE49AE49AE49A656AC731C731C73158
:1029D000C731C731C731C731C731C731C731C73137
:1029E000C731C731C731C731C731C731C731C73127
:1029F000C731C731C731C731C731C731C731C73117
:102A0000C731F073DFFFFFFFFFFFFFFFFFFFFFFF97
:102A10009EEF8A4AE739C48AE49AE49AE49AE49AEF
:102A2000E49AE49A656AC731C731C731C731C73103
:102A3000C731C731C731C731C731C731C731C731D6
:102A4000C731C731C731C731C731C731C731C731C6
:102A5000C731C731C731C731C731F07BBEF7FFFF80
:102A6000FFFFFFFFFFFFFFFF9EF7CF73C731C731A7
:102A7000E741C48AE49AE49AE49AE49AE49AE49AEC
:102A8000656AC731C731C731C731C731C731C731AF
:102A9000C731C731C731C731C731C731C731C73176
:102AA000C731C731C731C731C731C731C731C73166
:102AB000C731F0739EF7FFFFFFFFFFFFFFFFFFFF30
:102AC0009EF7CF73C731C731C731C731E741C48AD9
:102AD000E49AE49AE49AE49AE49AE49A656AC7313B
:102AE000C731C731C731C731C731C731C731C73126
:102AF000C731C731C731C731C731C731C731C73116
:102B0000C731C731C731C731C7316A421CE7FFFF40
:102B1000FFFFFFFFFFFFFFFFDFFFAF73C731C731CD
:102B2000C731C731C731C731E741C48AE49AE49A53
:102B3000E49AE49AE49AE49A064AC731C731C73165
:102B4000C731C731C731C731C731C731C731C731C5
:102B5000C731C731C731C731C731C731C731C731B5
:102B6000C731C731EC5AFFFFFFFFFFFFFFFFFFFF39
:102B7000BEF7AF73C731C731C731C731C731C731AE
:102B8000C731C731E741C492E49AE49AE49AE49ADF
:102B9000E49A4662C731C731C731C731C731C7313F
:102BA000C731C731C731C731C731C731C731C73165
:102BB000C731C731C731C731C731C731C7316A42A1
:102BC0003CE7FFFFFFFFFFFF9EF7CF73C731C73121
:102BD000C731C731C731C731C731C731C731C73135
:102BE000E741C48AE49AE49AE49AE49A064AC7312F
:102BF000C731C731C731C731C731C731C731C73115
:102C0000C731C731C731C731C731C731C731C73104
:102C1000C731C731C731C731C731CF731CE7DFFFB9
:102C20001CDFAF73C731C731C731C731C731C731B7
:102C3000C731C731C731C731C731C731E741A58275
:102C4000E49AE492466AC731C731C731C731C73108
:102C5000C731C731C731C731C731C731C731C731B4
:102C6000C731C731C731C731C731C731C731C731A4
:102C7000C731C731C7314A42CC524942C731C73147
:102C8000C731C731C731C731C731C731C731C73184
:102C9000C731C731C731C731C731E741E741C73114
:102CA000C731C731C731C731C731C731C731C73164
:102CB000C731C731C731C731C731C731C731C73154
:102CC000C731C731C731C731C731C731C731C73144
:102CD000C731C731C731C731C731C731C731C73134
:102CE000C731C731C731C731C731C731C731C73124
:102CF000C731C731C731C731C731C731C731C73114
:102D0000C731C731C731C731C731C731C731C73103
:102D1000C731A731C731C731C731C731C731C73113
:102D2000C731C731C731C731C731C731C731C731E3
:102D3000C731C731C731C731C731C731C731C731D3
:102D4000C731C731C731C731C731C731C731C731C3
:102D5000C731C731C731C731C731C731C731C731B3
:102D6000C731C731C731C731C731A7318629C7310C
:102D7000C731C731C731C731C731C731C731C73193
:102D8000C731C731C731C731C731C731C731C73183
:102D9000C731C731C731C731C731C731C731C73173
:102DA000C731C731C731C731C731C731C731C73163
:102DB000C731C731C731C731C731C731C731C73153
:102DC000C731C73186290519C731C731C731C73166
:102DD000C731C731C731C731C731C731C731C73133
:102DE000C731C731C731C731C731C731C731C73123
:102DF000C731C731C731C731C731C731C731C73113
:102E0000C731C731C731C731C731C731C731C73102
:102E1000C731C731C731C731C731C731C7310419CD
:102E20008208C731C731C731C731C731C731C73150
:102E3000C731C731C731C731C731C731C731C731D2
:102E4000C731C731C731C731C731C731C731C731C2
:102E5000C731C731C731C731C731C731C731C731B2
:102E6000C731C731C731C731C731C731C731C731A2
:102E7000C731C731C731C731820800004521C7318A
:102E8000C731C731C731C731C731C731C731C73182
:102E9000C731C731C731C731C731C731C731C73172
:102EA000C731C731C731C731C731C731C731C73162
:102EB000C731C731C731C731C731C731C731C73152
:102EC000C731C731C731C731C731C731C731C73142
:102ED00045210000000041088729C731C731C731AB
:102EE000C731C731C731C731C731C731C731C73122
:102EF000C731C731C731C731C731C731C731C73112
:102F0000C731C731C731C731C731C731C731C73101
:102F1000C731C731C731C731C731C731C731C731F1
:102F2000C731C731C731C7318729410800000000C8
:102F3000000082088729C731C731C731C731C7317F
:102F4000C731C731C731C731C731C731C731C731C1
:102F5000C731C731C731C731C731C731C731C731B1
:102F6000C731C731C731C731C731C731C731C731A1
:102F7000C731C731C731C731C731C731C731C73191
:102F800087298208000000000000000000004108BE
:102F90004521C731C731C731C731C731C731C73103
:102FA000C731C731C731C731C731C731C731C73161
:102FB000C731C731C731C731C731C731C731C73151
:102FC000C731C731C731C731C731C731C731C73141
:102FD000C731C731C731C731452141080000000062
:102FE000000000000000000000000000820804193A
:102FF0008629A731C731C731C731C731C731C7317A
:10300000C731C731C731C731C731C731C731C73100
:10301000C731C731C731C731C731C731C731C731F0
:10302000C731C731C731C731C731A7318629041924
:103030008208000000000000000000000000000006
:103040000000000000086038008960B980D1A0D974
:10305000A0D9A0D9A0D9A0D9A0D9A0D9A0D9A0D9A8
:10306000A0D9A0D9A0D9A0D9A0D9A0D9A0D9A0D998
:10307000A0D9A0D9A0D9A0D9A0D9A0D9A0D9A0D988
:10308000A0D9A0D980D160B90089603800080000BB
:10309000000000000000000000000000402820A107
:1030A000A0D9A0D9A0D9A0D9A0D9A0D9A0D9A0D958
:1030B000A0D9A0D9A0D9A0D9A0D9A0D9A0D9A0D948
:1030C000A0D9A0D9A0D9A0D9A0D9A0D9A0D9A0D938
:1030D000A0D9A0D9A0D9A0D9A0D9A0D9A0D9A0D928
:1030E000A0D9A0D9A0D920A140280000000000004C
:1030F00000000000603860C1A0D9A0D9A0D9A0D933
:10310000A0D9A0D9A0D9A0D9A0D9A0D9A0D9A0D9F7
:10311000A0D9A0D9A0D9A0D9A0D9A0D9A0D9A0D9E7
:10312000A0D9A0D9A0D9A0D9A0D9A0D9A0D9A0D9D7
:10313000A0D9A0D9A0D9A0D9A0D9A0D9A0D9A0D9C7
:10314000A0D960C16038000000000000402860C1C4
:10315000A0D9A0D9A0D9A0D9A0D9A0D9A0D9A0D9A7
:10316000A0D9A0D9A0D9A0D9A0D9A0D9A0D9A0D997
:10317000A0D9A0D9A0D9A0D9A0D9A0D9A0D9A0D987
:10318000A0D9A0D9A0D9A0D9A0D9A0D9A0D9A0D977
:10319000A0D9A0D9A0D9A0D9A0D9A0D9A0D960C1BF
:1031A00040280000000820A1A0D9A0D9A0D9A0D90A
:1031B000A0D9A0D9A0D9A0D9A0D9A0D9A0D9A0D947
:1031C000A0D9A0D9A0D9A0D9A0D9A0D9A0D9A0D937
:1031D000A0D9A0D9A0D9A0D9A0D9A0D9A0D9A0D927
:1031E000A0D9A0D9A0D9A0D9A0D9A0D9A0D9A0D917
:1031F000A0D9A0D9A0D9A0D9A0D920A10008603811
:10320000A0D9A0D9A0D9A0D9A0D9A0D9A0D9A0D9F6
:10321000A0D9A0D9A0D9A0D9A0D9A0D9A0D9A0D9E6
:10322000A0D9A0D9A0D9A0D9A0D9A0D9A0D9A0D9D6
:10323000A0D9A0D9A0D9A0D9A0D9A0D9A0D9A0D9C6
:10324000A0D9A0D9A0D9A0D9A0D9A0D9A0D9A0D9B6
:10325000A0D9A0D9A0D960380089A0D9A0D9A0D977
:10326000A0D9A0D9A0D9A0D9A0D9A0D9A0D9A0D996
:10327000A0D9A0D9A0D9A0D9A0D9A0D9A0D9A0D986
:10328000A0D9A0D9A0D9A0D9A0D9A0D9A0D9A0D976
:10329000A0D9A0D9A0D9A0D9A0D9A0D9A0D9A0D966
:1032A000A0D9A0D9A0D9A0D9A0D9A0D9A0D9A0D956
:1032B000008960B9A0D9A0D9A0D9A0D9A0D9A0D996
:1032C000A0D9A0D9A0D9A0D9A0D9A0D9A0D9A0D936
:1032D000A0D9A0D9A0D9A0D9A0D9A0D9A0D9A0D926
:1032E000A0D9A0D9A0D9A0D9A0D9A0D9A0D9A0D916
:1032F000A0D9A0D9A0D9A0D9A0D9A0D9A0D9A0D906
:10330000A0D9A0D9A0D9A0D9A0D960B980D1A0D97D
:10331000A0D9A0D9A0D9A0D9A0D9A0D9A0D9A0D9E5
:10332000A0D9A0D9A0D9A0D9A0D9A0D9A0D9A0D9D5
:10333000A0D907E3B4F5FAFEFAFEB4F507E3A0D985
:10334000A0D9A0D9A0D9A0D9A0D9A0D9A0D9A0D9B5
:10335000A0D9A0D9A0D9A0D9A0D9A0D9A0D9A0D9A5
:10336000A0D9A0D980D1A0D9A0D9A0D9A0D9A0D9BD
:10337000A0D9A0D9A0D9A0D9A0D9A0D9A0D9A0D985
:10338000A0D9A0D9A0D9A0D9A0D9F0ECFFFFFFFF08
:10339000BEFF9EFFFFFFDFFFCFECC0D9A0D9A0D9B1
:1033A000A0D9A0D9A0D9A0D9A0D9A0D9A0D9A0D955
:1033B000A0D9A0D9A0D9A0D9A0D9A0D9A0D9A0D945
:1033C000A0D9A0D9A0D9A0D9A0D9A0D9A0D9A0D935
:1033D000A0D9A0D9A0D9A0D9A0D9A0D9A0D9A0D925
:1033E000A0D9EBEBFFFF7DFF6EEC84E284E26EEC94
:1033F0007DFFFFFFAAEBA0D9A0D9A0D9A0D9A0D961
:10340000A0D9A0D9A0D9A0D9A0D9A0D9A0D9A0D9F4
:10341000A0D9A0D9A0D9A0D9A0D9A0D9A0D9A0D9E4
:10342000A0D9A0D9A0D9A0D9A0D9A0D9A0D9A0D9D4
:10343000A0D9A0D9A0D9A0D9A0D9C0D9DAFEDFFFE0
:10344000CBEBA0D9A0D9A0D9A0D9EBEBDFFFD9FE57
:10345000A0D9A0D9A0D9A0D9A0D9A0D9A0D9A0D9A4
:10346000A0D9A0D9A0D9A0D9A0D9A0D9A0D9A0D994
:10347000A0D9A0D9A0D9A0D9A0D9A0D9A0D9A0D984
:10348000A0D9A0D9A0D9A0D9A0D9A0D9A0D9A0D974
:10349000A0D9A0D984E29EFF3BFFC0D9A0D9A0D972
:1034A000A0D9A0D902DA1BFFFFFF84E222E202DAF0
:1034B000A0D9A0D9A0D9A0D9A0D9A0D9A0D9A0D944
:1034C000A0D9A0D9A0D9A0D9A0D9A0D9A0D9A0D934
:1034D000A0D9A0D9A0D9A0D9A0D9A0D9A0D9A0D924
:1034E000A0D9A0D9A0D9A0D9A0D9A0D9A0D9C5E2E6
:1034F000BEFFB9FEA0D9A0D9A0D9A0D9A0D9A0D982
:10350000B9FEFFFFBEFFBEFFBEFF4DECA0D9A0D9A4
:10351000A0D9A0D9A0D9A0D9A0D9A0D9A0D9A0D9E3
:10352000A0D9A0D9A0D9A0D9A0D9A0D9A0D9A0D9D3
:10353000A0D9A0D9A0D9A0D9A0D9A0D9A0D9A0D9C3
:10354000A0D9A0D9A0D9A0D9C5E2BEFFB9FEA0D903
:10355000A0D940E240E2A0D9A0D9B9FEFFFF3BFFCD
:103560001BFFFAFEAAEBA0D9A0D9A0D9A0D9A0D957
:10357000A0D9A0D9A0D9A0D9A0D9A0D9A0D9A0D983
:10358000A0D9A0D9A0D9A0D9A0D9A0D9A0D9A0D973
:10359000A0D9A0D9A0D9A0D9A0D9A0D9A0D9A0D963
:1035A000A0D9C5E2BEFFB9FEA0D960EA00FC00FCCC
:1035B00060E2A0D9B9FEFFFF64E2A0D9A0D9A0D9EA
:1035C000A0D9A0D9A0D9A0D9A0D9A0D9A0D9A0D933
:1035D000A0D9A0D9A0D9A0D9A0D9A0D9A0D9A0D923
:1035E000A0D9A0D9A0D9A0D9A0D9A0D9A0D9A0D913
:1035F000A0D9A0D9A0D9A0D9A0D9A0D9C5E2BEFF91
:10360000B9FEA0D9C0EA20FC20FCC0EAA0D9B9FECE
:10361000FFFFEBEB48E327E3E1D9A0D9A0D9A0D97C
:10362000A0D9A0D9A0D9A0D9A0D9A0D9A0D9A0D9D2
:10363000A0D9A0D9A0D9A0D9A0D9A0D9A0D9A0D9C2
:10364000A0D9A0D9A0D9A0D9A0D9A0D9A0D9A0D9B2
:10365000A0D9A0D9A0D9C5E2BEFFB9FEA0D9C0EAC1
:1036600020FC20FCC0EAA0D9B9FEFFFFDFFFDFFF8E
:10367000DEFFAFECA0D9A0D9A0D9A0D9A0D9A0D9FC
:10368000A0D9A0D9A0D9A0D9A0D9A0D9A0D9A0D972
:10369000A0D9A0D9A0D9A0D9A0D9A0D9A0D9A0D962
:1036A000A0D9A0D9A0D9A0D9A0D9A0D9A0D9A0D952
:1036B000C5E2BEFFB9FEA0D9C0EA20FC20FCC0EAEA
:1036C000A0D9B9FEFFFF57F616F6D5F507E3A0D946
:1036D000A0D9A0D9A0D9A0D9A0D9A0D9A0D9A0D922
:1036E000A0D9A0D9A0D9A0D9A0D9A0D9A0D9A0D912
:1036F000A0D9A0D9A0D9A0D9A0D9A0D9A0D9A0D902
:10370000A0D9A0D9A0D9A0D9A0D9C5E2BEFFB9FE41
:10371000A0D9C0EA20FC20FCC0EAA0D9B9FEFFFF76
:1037200064E2A0D9A0D9A0D9A0D9A0D9A0D9A0D904
:10373000A0D9A0D9A0D9A0D9A0D9A0D9A0D9A0D9C1
:10374000A0D9A0D9A0D9A0D9A0D9A0D9A0D9A0D9B1
:10375000A0D9A0D9A0D9A0D9A0D9A0D9A0D9A0D9A1
:10376000A0D9A0D9C5E2BEFFB9FEA0D9C0EA20FC0D
:1037700020FCC0EAA0D9B9FEFFFFCFEC4DEC2CEC49
:1037800043E2A0D9A0D9A0D9A0D9A0D9A0D9A0D9C5
:10379000A0D9A0D9A0D9A0D9A0D9A0D9A0D9A0D961
:1037A000A0D9A0D9A0D9A0D9A0D9A0D9A0D9A0D951
:1037B000A0D9A0D9A0D9A0D9A0D9A0D9A0D9C5E213
:1037C000BEFFB9FEA0D9C0EA20FC20FCC0EAA0D907
:1037D000B9FEFFFFFFFFFFFFFFFFF0ECA0D9A0D96C
:1037E000A0D9A0D9A0D9A0D9A0D9A0D9A0D9A0D911
:1037F000A0D9A0D9A0D9A0D9A0D9A0D9A0D9A0D901
:10380000A0D9A0D9A0D9A0D9A0D9A0D9A0D9A0D9F0
:10381000A0D9A0D9A0D9A0D9C5E2BEFFB9FEA0D930
:10382000C0EA20FC20FCC0EAA0D9B9FEFFFF32F5B7
:10383000D0ECAFEC64E2A0D9A0D9A0D9A0D9A0D98E
:10384000A0D9A0D9A0D9A0D9A0D9A0D9A0D9A0D9B0
:10385000A0D9A0D9A0D9A0D9A0D9A0D9A0D9A0D9A0
:10386000A0D9A0D9A0D9A0D9A0D9A0D9A0D9A0D990
:10387000A0D9E6E2BEFFB9FEA0D9C0EA20FC20FC38
:10388000C0EAA0D9B9FEFFFF84E2A0D9A0D9A0D98F
:10389000A0D9A0D9A0D9A0D9A0D9A0D9A0D9A0D960
:1038A000A0D9A0D9A0D9A0D9A0D9A0D9A0D9A0D950
:1038B000A0D9A0D9A0D9A0D9A0D9A0D9A0D9A0D940
:1038C000A0D9A0D9A0D9A0D9A0D9E1D9D4F5FFFF1A
:1038D00036F6A0D9C0EA20FC20FCC0EAA0D957F6F1
:1038E000FFFFB4F5C1D9A0D9A0D9A0D9A0D9A0D93A
:1038F000A0D9A0D9A0D9A0D9A0D9A0D9A0D9A0D900
:10390000A0D9A0D9A0D9A0D9A0D9A0D9A0D9A0D9EF
:10391000A0D9A0D9A0D9A0D9A0D9A0D9A0D9A0D9DF
:10392000A0D9A0D98EECFFFF3BFFA5E2A0D9C0EA49
:1039300020FC20FCC0EAA0D9C5E21BFFFFFF6EEC13
:10394000A0D9A0D9A0D9A0D9A0D9A0D9A0D9A0D9AF
:10395000A0D9A0D9A0D9A0D9A0D9A0D9A0D9A0D99F
:10396000A0D9A0D9A0D9A0D9A0D9A0D9A0D9A0D98F
:10397000A0D9A0D9A0D9A0D9A0D9A0D923E23CFF31
:10398000DFFF27E3A0D900E280F320FC20FC80F3D6
:10399000E0E1A0D927E3FFFF1BFF23E2A0D9A0D9D4
:1039A000A0D9A0D9A0D9A0D9A0D9A0D9A0D9A0D94F
:1039B000A0D9A0D9A0D9A0D9A0D9A0D9A0D9A0D93F
:1039C000A0D9A0D9A0D9A0D9A0D9A0D9A0D9A0D92F
:1039D000A0D9A0D9A0D9CAEBFFFFF5F5A0D9E0E1A5
:1039E000C0FB20FC20FC20FC20FCA0FBE0E1A0D9D7
:1039F00036F6FFFFAAEBA0D9A0D9A0D9A0D9A0D9AB
:103A0000A0D9A0D9A0D9A0D9A0D9A0D9A0D9A0D9EE
:103A1000A0D9A0D9A0D9A0D9A0D9A0D9A0D9A0D9DE
:103A2000A0D9A0D9A0D9A0D9A0D9A0D9A0D9A0D9CE
:103A300011EDFFFF4DECA0D9A0EA20FC20FC20FCFA
:103A400020FC20FC20FCA0EAA0D96EECFFFFF0ECEB
:103A5000A0D9A0D9A0D9A0D9A0D9A0D9A0D9A0D99E
:103A6000A0D9A0D9A0D9A0D9A0D9A0D9A0D9A0D98E
:103A7000A0D9A0D9A0D9A0D9A0D9A0D9A0D9A0D97E
:103A8000A0D9A0D9A0D9A0D9A0D972F5FFFFCBEBBE
:103A9000A0D900F320FC20FC20FC20FC20FC20FC12
:103AA00000F3A0D9EBEBFFFF52F5A0D9A0D9A0D924
:103AB000A0D9A0D9A0D9A0D9A0D9A0D9A0D9A0D93E
:103AC000A0D9A0D9A0D9A0D9A0D9A0D9A0D9A0D92E
:103AD000A0D9A0D9A0D9A0D9A0D9A0D9A0D9A0D91E
:103AE000A0D9A0D9F0ECFFFF8EECA0D9A0EA20FC71
:103AF00020FC20FC20FC20FC20FCA0EAA0D98EECBD
:103B0000FFFFD0ECA0D9A0D9A0D9A0D9A0D9A0D925
:103B1000A0D9A0D9A0D9A0D9A0D9A0D9A0D9A0D9DD
:103B2000A0D9A0D9A0D9A0D9A0D9A0D9A0D9A0D9CD
:103B3000A0D9A0D9A0D9A0D9A0D9A0D9A0D989E3CA
:103B4000FFFF57F6C0D9C0D9A0FB20FC20FC20FC09
:103B500020FC80FBC0E1A0D998F6FFFF69E3A0D963
:103B6000A0D9A0D9A0D9A0D9A0D9A0D9A0D9A0D98D
:103B7000A0D9A0D9A0D9A0D9A0D9A0D9A0D9A0D97D
:103B8000A0D9A0D9A0D9A0D9A0D9A0D9A0D9A0D96D
:103B9000A0D9A0D9A0D9A0D902E2FAFEFFFFAAEBD2
:103BA000A0D9E0E120F3C0FBC0FB20F3E0E1A0D905
:103BB000AAEBFFFFFAFE02DAA0D9A0D9A0D9A0D9BA
:103BC000A0D9A0D9A0D9A0D9A0D9A0D9A0D9A0D92D
:103BD000A0D9A0D9A0D9A0D9A0D9A0D9A0D9A0D91D
:103BE000A0D9A0D9A0D9A0D9A0D9A0D9A0D9A0D90D
:103BF000A0D9A0D90CECDFFF7DFF48E3A0D9A0D964
:103C0000C0D9C0D9A0D9A0D969E37CFFDFFFEBEB15
:103C1000A0D9A0D9A0D9A0D9A0D9A0D9A0D9A0D9DC
:103C2000A0D9A0D9A0D9A0D9A0D9A0D9A0D9A0D9CC
:103C3000A0D9A0D9A0D9A0D9A0D9A0D9A0D9A0D9BC
:103C4000A0D9A0D9A0D9A0D9A0D9A0D9A0D9C0D98C
:103C500011EDFFFFBEFF73F548E363E263E248E363
:103C600073F5BEFFFFFFF0ECA0D9A0D9A0D9A0D971
:103C7000A0D9A0D9A0D9A0D9A0D9A0D9A0D9A0D97C
:103C8000A0D9A0D9A0D9A0D9A0D9A0D9A0D9A0D96C
:103C9000A0D9A0D9A0D9A0D9A0D9A0D9A0D9A0D95C
:103CA000A0D9A0D9A0D9A0D9A0D9C0D94DECBEFF28
:103CB000FFFFDFFF9DFF9DFFDFFFFFFF9EFF6DEC1E
:103CC000C0D9A0D9A0D9A0D9A0D9A0D9A0D9A0D90C
:103CD000A0D9A0D9A0D9A0D9A0D9A0D9A0D9A0D91C
:103CE000A0D9A0D980D1A0D9A0D9A0D9A0D9A0D934
:103CF000A0D9A0D9A0D9A0D9A0D9A0D9A0D9A0D9FC
:103D0000A0D9A0D9A0D9A0D943E28FEC57F63BFFA8
:103D10001BFF57F68EEC23E2A0D9A0D9A0D9A0D9D9
:103D2000A0D9A0D9A0D9A0D9A0D9A0D9A0D9A0D9CB
:103D3000A0D9A0D9A0D9A0D9A0D9A0D980D160B943
:103D4000A0D9A0D9A0D9A0D9A0D9A0D9A0D9A0D9AB
:103D5000A0D9A0D9A0D9A0D9A0D9A0D9A0D9A0D99B
:103D6000A0D9A0D9A0D9A0D9A0D9A0D9A0D9A0D98B
:103D7000A0D9A0D9A0D9A0D9A0D9A0D9A0D9A0D97B
:103D8000A0D9A0D9A0D9A0D9A0D9A0D9A0D9A0D96B
:103D9000A0D9A0D9A0D960B90089A0D9A0D9A0D9AB
:103DA000A0D9A0D9A0D9A0D9A0D9A0D9A0D9A0D94B
:103DB000A0D9A0D9A0D9A0D9A0D9A0D9A0D9A0D93B
:103DC000A0D9A0D9A0D9A0D9A0D9A0D9A0D9A0D92B
:103DD000A0D9A0D9A0D9A0D9A0D9A0D9A0D9A0D91B
:103DE000A0D9A0D9A0D9A0D9A0D9A0D9A0D9A0D90B
:103DF00000896038A0D9A0D9A0D9A0D9A0D9A0D9CC
:103E0000A0D9A0D9A0D9A0D9A0D9A0D9A0D9A0D9EA
:103E1000A0D9A0D9A0D9A0D9A0D9A0D9A0D9A0D9DA
:103E2000A0D9A0D9A0D9A0D9A0D9A0D9A0D9A0D9CA
:103E3000A0D9A0D9A0D9A0D9A0D9A0D9A0D9A0D9BA
:103E4000A0D9A0D9A0D9A0D9A0D96038000820A1B4
:103E5000A0D9A0D9A0D9A0D9A0D9A0D9A0D9A0D99A
:103E6000A0D9A0D9A0D9A0D9A0D9A0D9A0D9A0D98A
:103E7000A0D9A0D9A0D9A0D9A0D9A0D9A0D9A0D97A
:103E8000A0D9A0D9A0D9A0D9A0D9A0D9A0D9A0D96A
:103E9000A0D9A0D9A0D9A0D9A0D9A0D9A0D9A0D95A
:103EA000A0D920A100080000402860C1A0D9A0D955
:103EB000A0D9A0D9A0D9A0D9A0D9A0D9A0D9A0D93A
:103EC000A0D9A0D9A0D9A0D9A0D9A0D9A0D9A0D92A
:103ED000A0D9A0D9A0D9A0D9A0D9A0D9A0D9A0D91A
:103EE000A0D9A0D9A0D9A0D9A0D9A0D9A0D9A0D90A
:103EF000A0D9A0D9A0D9A0D9A0D960C140280000DC
:103F000000000000604060C1A0D9A0D9A0D9A0D90C
:103F1000A0D9A0D9A0D9A0D9A0D9A0D9A0D9A0D9D9
:103F2000A0D9A0D9A0D9A0D9A0D9A0D9A0D9A0D9C9
:103F3000A0D9A0D9A0D9A0D9A0D9A0D9A0D9A0D9B9
:103F4000A0D9A0D9A0D9A0D9A0D9A0D9A0D9A0D9A9
:103F5000A0D960C160400000000000000000000027
:103F6000402820A1A0D9A0D9A0D9A0D9A0D9A0D952
:103F7000A0D9A0D9A0D9A0D9A0D9A0D9A0D9A0D979
:103F8000A0D9A0D9A0D9A0D9A0D9A0D9A0D9A0D969
:103F9000A0D9A0D9A0D9A0D9A0D9A0D9A0D9A0D959
:103FA000A0D9A0D9A0D9A0D9A0D920A1402800008B
:103FB0000000000000000000000000000008603861
:103FC000008960B980D1A0D9A0D9A0D9A0D9A0D9A1
:103FD000A0D9A0D9A0D9A0D9A0D9A0D9A0D9A0D919
:103FE000A0D9A0D9A0D9A0D9A0D9A0D9A0D9A0D909
:103FF000A0D9A0D9A0D9A0D9A0D9A0D980D160B981
:1040000000896038000800000000000000006D6CAE
:104010000020202020202020002020202020002000
:104020002020202000593A00202020202000583A4B
:104030000020202020200057656E6E205820756ECD
:10404000642059203020616E7A656967656E206949
:104050006E20646572204D697474652064657320F8
:104060004B7265757A65732064616E6E2069737436
:104070002064657220546F75636873637265656E42
:104080002072696368746967206A75737469657200
:10409000742E00566F722065696E656D20327465EE
:1040A0006E2045696E7374656C6C656E2065727305
:1040B0007420626569646520576572746520617556
:1040C000662030205374656C6C656E20756E6420BC
:1040D00053706569636865726E2100676C69636817
:1040E00073742067656E617520696E206469652050
:1040F0004D6974746520646573204B7265757A65CB
:10410000732E2044617261756668696E20776572EE
:1041100064656E2064697220322057657274652070
:10412000616E67657A656967742064696520646596
:104130006E205820756E642059204F666673657432
:1041400020616E7A656967656E2E205472616765BD
:104150002064696573652065696E20756E642073DF
:10416000706569636865722064656E205765727456
:104170002E005469707065206D69742065696E65E4
:104180006D20537069747A656E20476567656E733C
:1041900074616E64206D00546F756368736372653B
:1041A000656E2041646A7573746D656E7400526546
:1041B000736572766F69723A00436F6F6C696E67F0
:1041C0002046616E3A005761737365722054656DC5
:1041D000703A004D657373656E204C6576656C3A78
:1041E000005374616E646279204D6F6475733A0098
:1041F0004E61636874204D6F6475733A0053772E77
:1042000056200053657474696E677300202323235E
:104210002323232323232320534F5254494E472043
:104220004C49474854202323232323232323232398
:1042300020004D616E75656C6C204C69636874007C
:10424000300030005A6569743A005A656974204537
:10425000696E7374656C6C656E004B616E616C00A9
:10426000200020006C6C7374616E6420696E2031D4
:104270003030206D6C00460050756D706520004D2B
:10428000616E75656C6C20446F73696572656E0054
:104290002000646F73696E67636F756E74646F7707
:1042A0006E007566742036302053656B756E6465DC
:1042B0006E0050756D7065206C007A756D206B61B5
:1042C0006C696272696572656E00636B656E00533E
:1042D00074617274206472004B616C69627269650A
:1042E00072656E2050756D706500300030003000D2
:1042F00030006D6C2F446F73653A006D6C2F4D6903
:104300006E3A0050756D70653A00416B7469766560
:104310003A003A005A6569743A00322F3200312F60
:1043200032004475656E676572002020200041559B
:1043300053002020200041555300202020004155EB
:1043400053004C45442054656D702E204175733ADE
:10435000004C45442046616E204D61783A004C4542
:10436000442046616E2053746172743A0054656D46
:10437000706572617475722045696E7374656C6CDA
:10438000756E67656E0030003000300044617475F2
:104390006D3A005A6569743A005A6569742044613F
:1043A00074756D2045696E7374656C6C656E002064
:1043B0002F200057726974696E672044696D6D75AE
:1043C0006E672000202F200057726974696E672085
:1043D0005761737365727374616E6400202F2000DF
:1043E00057726974696E672045696E7374656C6C89
:1043F000756E67656E2000202F2000577269746902
:104400006E67204C45442046617262656E20002034
:104410002F200057726974696E672054656D70654E
:104420007261747572656E2000202F2000577269CA
:1044300074696E67204B616C696272696572756E32
:10444000672000202F200057726974696E6720442E
:104450006F73696572756E672000202F2000577298
:104460006974696E6720566F727261742000202F24
:10447000200057726974696E6720446F73655F56D8
:10448000616C2000496E697469616C697369657259
:10449000756E6720454550524F4D00300030004149
:1044A00071756147726F7720204D696E695446546B
:1044B000006D6C00202020202020200041717561BB
:1044C00047726F7720204D696E6954465400200072
:1044D00030003000FF0FFE0FFE0FFE0FFE0FFE0F2D
:1044E000FE0FFE0FFE0FFE0FFE0FFD0FFD0FFD0F67
:1044F000FD0FFD0FFD0FFD0FFD0FFD0FFD0FFD0F5C
:10450000FD0FFD0FFD0FFC0FFC0FFC0FFC0FFC0F50
:10451000FC0FFC0FFC0FFC0FFB0FFB0FFB0FFB0F47
:10452000FB0FFB0FFB0FFA0FFA0FFA0FFA0FFA0F40
:10453000F90FF90FF90FF90FF80FF80FF80FF80F3F
:10454000F70FF70FF70FF70FF60FF60FF60FF50F40
:10455000F50FF40FF40FF40FF30FF30FF20FF20F48
:10456000F10FF10FF00FF00FEF0FEE0FEE0FED0F59
:10457000EC0FEC0FEB0FEA0FE90FE90FE80FE70F75
:10458000E60FE50FE40FE30FE20FE10FDF0FDE0FA1
:10459000DD0FDC0FDA0FD90FD80FD70FD60FD60FDC
:1045A000D60FD60FD60FD60FD60FD60FD60FD60FE3
:1045B000D60FD50FD50FD50FD50FD50FD50FD50FDA
:1045C000D50FD50FD50FD50FD50FD50FD50FD50FCB
:1045D000D50FD50FD50FD50FD50FD50FD40FD40FBD
:1045E000D40FD40FD40FD40FD40FD40FD40FD40FB3
:1045F000D40FD40FD40FD40FD40FD40FD40FD40FA3
:10460000D40FD40FD30FD30FD30FD30FD30FD30F98
:10461000D30FD30FD30FD30FD30FD30FD30FD30F8A
:10462000D30FD30FD30FD30FD30FD30FD20FD20F7C
:10463000D20FD20FD20FD20FD20FD20FD20FD20F72
:10464000D20FD20FD20FD20FD20FD20FD20FD20F62
:10465000D20FD10FD10FD10FD10FD10FD10FD10F59
:10466000D10FD10FD10FD10FD10FD10FD10FD10F4A
:10467000D10FD10FD10FD10FD00FD00FD00FD00F3E
:10468000D00FD00FD00FD00FD00FD00FD00FD00F32
:10469000D00FD00FD00FD00FD00FD00FCF0FCF0F24
:1046A000CF0FCF0FCF0FCF0FCF0FCF0FCF0FCF0F1A
:1046B000CF0FCF0FCF0FCF0FCF0FCF0FCF0FCF0F0A
:1046C000CE0FCE0FCE0FCE0FCE0FCE0FCE0FCE0F02
:1046D000CE0FCE0FCE0FCE0FCE0FCE0FCE0FCE0FF2
:1046E000CE0FCE0FCD0FCD0FCD0FCD0FCD0FCD0FE8
:1046F000CD0FCD0FCD0FCD0FCD0FCD0FCD0FCD0FDA
:10470000CD0FCD0FCD0FCC0FCC0FCC0FCC0FCC0FCE
:10471000CC0FCC0FCC0FCC0FCC0FCC0FCC0FCC0FC1
:10472000CC0FCC0FCC0FCC0FCB0FCB0FCB0FCB0FB5
:10473000CB0FCB0FCB0FCB0FCB0FCB0FCB0FCB0FA9
:10474000CB0FCB0FCB0FCB0FCB0FCA0FCA0FCA0F9C
:10475000CA0FCA0FCA0FCA0FCA0FCA0FCA0FCA0F91
:10476000CA0FCA0FCA0FCA0FCA0FC90FC90FC90F84
:10477000C90FC90FC90FC90FC90FC90FC90FC90F79
:10478000C90FC90FC90FC90FC90FC80FC80FC80F6C
:10479000C80FC80FC80FC80FC80FC80FC80FC80F61
:1047A000C80FC80FC80FC80FC80FC70FC70FC70F54
:1047B000C70FC70FC70FC70FC70FC70FC70FC70F49
:1047C000C70FC70FC70FC70FC70FC60FC60FC60F3C
:1047D000C60FC60FC60FC60FC60FC60FC60FC60F31
:1047E000C60FC60FC60FC60FC50FC50FC50FC50F25
:1047F000C50FC50FC50FC50FC50FC50FC50FC50F19
:10480000C50FC50FC50FC40FC40FC40FC40FC40F0D
:10481000C40FC40FC40FC40FC40FC40FC40FC40F00
:10482000C40FC40FC30FC30FC30FC30FC30FC30FF6
:10483000C30FC30FC30FC30FC30FC30FC30FC30FE8
:10484000C20FC20FC20FC20FC20FC20FC20FC20FE0
:10485000C20FC20FC20FC20FC20FC20FC10FC10FD2
:10486000C10FC10FC10FC10FC10FC10FC10FC10FC8
:10487000C10FC10FC10FC10FC00FC00FC00FC00FBC
:10488000C00FC00FC00FC00FC00FC00FC00FC00FB0
:10489000C00FC00FBF0FBF0FBF0FBF0FBF0FBF0FA6
:1048A000BF0FBF0FBF0FBF0FBF0FBF0FBF0FBF0F98
:1048B000BE0FBE0FBE0FBE0FBE0FBE0FBE0FBE0F90
:1048C000BE0FBE0FBE0FBE0FBE0FBD0FBD0FBD0F83
:1048D000BD0FBD0FBD0FBD0FBD0FBD0FBD0FBD0F78
:1048E000BD0FBD0FBC0FBC0FBC0FBC0FBC0FBC0F6E
:1048F000BC0FBC0FBC0FBC0FBC0FBC0FBC0FBB0F61
:10490000BB0FBB0FBB0FBB0FBB0FBB0FBB0FBB0F57
:10491000BB0FBB0FBB0FBB0FBA0FBA0FBA0FBA0F4B
:10492000BA0FBA0FBA0FBA0FBA0FBA0FBA0FBA0F3F
:10493000B90FB90FB90FB90FB90FB90FB90FB90F37
:10494000B90FB90FB90FB90FB90FB80FB80FB80F2A
:10495000B80FB80FB80FB80FB80FB80FB80FB80F1F
:10496000B80FB70FB70FB70FB70FB70FB70FB70F16
:10497000B70FB70FB70FB70FB70FB60FB60FB60F0A
:10498000B60FB60FB60FB60FB60FB60FB60FB60FFF
:10499000B60FB50FB50FB50FB50FB50FB50FB50FF6
:1049A000B50FB50FB50FB50FB50FB40FB40FB40FEA
:1049B000B40FB40FB40FB40FB40FB40FB40FB40FDF
:1049C000B30FB30FB30FB30FB30FB30FB30FB30FD7
:1049D000B30FB30FB30FB30FB20FB20FB20FB20FCB
:1049E000B20FB20FB20FB20FB20FB20FB20FB10FC0
:1049F000B10FB10FB10FB10FB10FB10FB10FB10FB7
:104A0000B10FB10FB00FB00FB00FB00FB00FB00FAC
:104A1000B00FB00FB00FB00FB00FAF0FAF0FAF0FA1
:104A2000AF0FAF0FAF0FAF0FAF0FAF0FAF0FAF0F96
:104A3000AE0FAE0FAE0FAE0FAE0FAE0FAE0FAE0F8E
:104A4000AE0FAE0FAE0FAD0FAD0FAD0FAD0FAD0F83
:104A5000AD0FAD0FAD0FAD0FAD0FAC0FAC0FAC0F79
:104A6000AC0FAC0FAC0FAC0FAC0FAC0FAC0FAC0F6E
:104A7000AB0FAB0FAB0FAB0FAB0FAB0FAB0FAB0F66
:104A8000AB0FAB0FAA0FAA0FAA0FAA0FAA0FAA0F5C
:104A9000AA0FAA0FAA0FAA0FA90FA90FA90FA90F52
:104AA000A90FA90FA90FA90FA90FA90FA80FA80F48
:104AB000A80FA80FA80FA80FA80FA80FA80FA80F3E
:104AC000A70FA70FA70FA70FA70FA70FA70FA70F36
:104AD000A70FA70FA60FA60FA60FA60FA60FA60F2C
:104AE000A60FA60FA60FA60FA50FA50FA50FA50F22
:104AF000A50FA50FA50FA50FA50FA50FA40FA40F18
:104B0000A40FA40FA40FA40FA40FA40FA40FA30F0E
:104B1000A30FA30FA30FA30FA30FA30FA30FA30F05
:104B2000A30FA20FA20FA20FA20FA20FA20FA20FFC
:104B3000A20FA20FA10FA10FA10FA10FA10FA10FF3
:104B4000A10FA10FA10FA00FA00FA00FA00FA00FEA
:104B5000A00FA00FA00FA00F9F0F9F0F9F0F9F0FE1
:104B60009F0F9F0F9F0F9F0F9F0F9E0F9E0F9E0FD8
:104B70009E0F9E0F9E0F9E0F9E0F9E0F9D0F9D0FCF
:104B80009D0F9D0F9D0F9D0F9D0F9D0F9D0F9C0FC6
:104B90009C0F9C0F9C0F9C0F9C0F9C0F9C0F9C0FBD
:104BA0009B0F9B0F9B0F9B0F9B0F9B0F9B0F9B0FB5
:104BB0009A0F9A0F9A0F9A0F9A0F9A0F9A0F9A0FAD
:104BC0009A0F990F990F990F990F990F990F990FA4
:104BD000990F990F980F980F980F980F980F980F9B
:104BE000980F980F970F970F970F970F970F970F93
:104BF000970F970F960F960F960F960F960F960F8B
:104C0000960F960F960F950F950F950F950F950F81
:104C1000950F950F950F940F940F940F940F940F79
:104C2000940F940F940F930F930F930F930F930F71
:104C3000930F930F930F920F920F920F920F920F69
:104C4000920F920F920F910F910F910F910F910F61
:104C5000910F910F910F900F900F900F900F900F59
:104C6000900F900F900F8F0F8F0F8F0F8F0F8F0F51
:104C70008F0F8F0F8E0F8E0F8E0F8E0F8E0F8E0F4A
:104C80008E0F8E0F8D0F8D0F8D0F8D0F8D0F8D0F42
:104C90008D0F8D0F8C0F8C0F8C0F8C0F8C0F8C0F3A
:104CA0008C0F8B0F8B0F8B0F8B0F8B0F8B0F8B0F33
:104CB0008B0F8A0F8A0F8A0F8A0F8A0F8A0F8A0F2B
:104CC000890F890F890F890F890F890F890F880F25
:104CD000880F880F880F880F880F880F880F870F1D
:104CE000870F870F870F870F870F870F860F860F16
:104CF000860F860F860F860F860F850F850F850F0F
:104D0000850F850F850F850F840F840F840F840F07
:104D1000840F840F840F830F830F830F830F830F00
:104D2000830F830F820F820F820F820F820F820FF9
:104D3000820F810F810F810F810F810F810F810FF2
:104D4000800F800F800F800F800F800F800F7F0FEC
:104D50007F0F7F0F7F0F7F0F7F0F7F0F7E0F7E0FE5
:104D60007E0F7E0F7E0F7E0F7D0F7D0F7D0F7D0FDF
:104D70007D0F7D0F7D0F7C0F7C0F7C0F7C0F7C0FD8
:104D80007C0F7C0F7B0F7B0F7B0F7B0F7B0F7B0FD1
:104D90007A0F7A0F7A0F7A0F7A0F7A0F7A0F790FCC
:104DA000790F790F790F790F790F780F780F780FC6
:104DB000780F780F780F780F770F770F770F770FBF
:104DC000770F770F760F760F760F760F760F760FB9
:104DD000760F750F750F750F750F750F750F740FB3
:104DE000740F740F740F740F740F730F730F730FAE
:104DF000730F730F730F720F720F720F720F720FA8
:104E0000720F710F710F710F710F710F710F700FA2
:104E1000700F700F700F700F700F700F6F0F6F0F9C
:104E20006F0F6F0F6F0F6F0F6E0F6E0F6E0F6E0F96
:104E30006E0F6E0F6D0F6D0F6D0F6D0F6D0F6D0F90
:104E40006C0F6C0F6C0F6C0F6C0F6B0F6B0F6B0F8D
:104E50006B0F6B0F6B0F6A0F6A0F6A0F6A0F6A0F87
:104E60006A0F690F690F690F690F690F690F680F82
:104E7000680F680F680F680F680F670F670F670F7D
:104E8000670F670F660F660F660F660F660F660F78
:104E9000650F650F650F650F650F650F640F640F74
:104EA000640F640F640F630F630F630F630F630F6F
:104EB000630F620F620F620F620F620F610F610F6B
:104EC000610F610F610F610F600F600F600F600F66
:104ED000600F5F0F5F0F5F0F5F0F5F0F5F0F5E0F62
:104EE0005E0F5E0F5E0F5E0F5D0F5D0F5D0F5D0F5E
:104EF0005D0F5C0F5C0F5C0F5C0F5C0F5C0F5B0F5A
:104F00005B0F5B0F5B0F5B0F5A0F5A0F5A0F5A0F55
:104F10005A0F590F590F590F590F590F590F580F51
:104F2000580F580F580F580F570F570F570F570F4D
:104F3000570F560F560F560F560F560F550F550F4A
:104F4000550F550F550F540F540F540F540F540F46
:104F5000530F530F530F530F530F520F520F520F44
:104F6000520F520F510F510F510F510F510F500F40
:104F7000500F500F500F500F4F0F4F0F4F0F4F0F3D
:104F80004F0F4E0F4E0F4E0F4E0F4E0F4D0F4D0F3A
:104F90004D0F4D0F4D0F4C0F4C0F4C0F4C0F4C0F36
:104FA0004B0F4B0F4B0F4B0F4B0F4A0F4A0F4A0F34
:104FB0004A0F490F490F490F490F490F480F480F32
:104FC000480F480F480F470F470F470F470F470F2E
:104FD000460F460F460F460F450F450F450F450F2D
:104FE000450F440F440F440F440F440F430F430F2A
:104FF000430F430F420F420F420F420F420F410F28
:10500000410F410F410F400F400F400F400F400F25
:105010003F0F3F0F3F0F3F0F3E0F3E0F3E0F3E0F24
:105020003E0F3D0F3D0F3D0F3D0F3C0F3C0F3C0F22
:105030003C0F3C0F3B0F3B0F3B0F3B0F3A0F3A0F20
:105040003A0F3A0F3A0F390F390F390F390F380F1E
:10505000380F380F380F370F370F370F370F370F1D
:10506000360F360F360F360F350F350F350F350F1C
:10507000340F340F340F340F340F330F330F330F1B
:10508000330F320F320F320F320F310F310F310F1A
:10509000310F300F300F300F300F300F2F0F2F0F19
:1050A0002F0F2F0F2E0F2E0F2E0F2E0F2D0F2D0F18
:1050B0002D0F2D0F2C0F2C0F2C0F2C0F2B0F2B0F18
:1050C0002B0F2B0F2A0F2A0F2A0F2A0F290F290F18
:1050D000290F290F280F280F280F280F270F270F18
:1050E000270F270F260F260F260F260F250F250F18
:1050F000250F250F240F240F240F240F230F230F18
:10510000230F230F220F220F220F220F210F210F17
:10511000210F210F200F200F200F200F1F0F1F0F17
:105120001F0F1F0F1E0F1E0F1E0F1E0F1D0F1D0F17
:105130001D0F1D0F1C0F1C0F1C0F1B0F1B0F1B0F18
:105140001B0F1A0F1A0F1A0F1A0F190F190F190F19
:10515000190F180F180F180F180F170F170F170F19
:10516000160F160F160F160F150F150F150F150F1B
:10517000140F140F140F130F130F130F130F120F1D
:10518000120F120F120F110F110F110F100F100F1E
:10519000100F100F0F0F0F0F0F0F0F0F0E0F0E0F1F
:1051A0000E0F0D0F0D0F0D0F0D0F0C0F0C0F0C0F21
:1051B0000B0F0B0F0B0F0B0F0A0F0A0F0A0F0A0F23
:1051C000090F090F090F080F080F080F080F070F25
:1051D000070F070F060F060F060F060F050F050F27
:1051E000050F040F040F040F030F030F030F030F2A
:1051F000020F020F020F010F010F010F010F000F2D
:10520000000F000FFF0EFF0EFF0EFF0EFE0EFE0E34
:10521000FE0EFD0EFD0EFD0EFC0EFC0EFC0EFC0E39
:10522000FB0EFB0EFB0EFA0EFA0EFA0EF90EF90E3D
:10523000F90EF90EF80EF80EF80EF70EF70EF70E3F
:10524000F60EF60EF60EF50EF50EF50EF50EF40E44
:10525000F40EF40EF30EF30EF30EF20EF20EF20E47
:10526000F10EF10EF10EF10EF00EF00EF00EEF0E4B
:10527000EF0EEF0EEE0EEE0EEE0EED0EED0EED0E4F
:10528000EC0EEC0EEC0EEC0EEB0EEB0EEB0EEA0E53
:10529000EA0EEA0EE90EE90EE90EE80EE80EE80E57
:1052A000E70EE70EE70EE60EE60EE60EE50EE50E5D
:1052B000E50EE40EE40EE40EE30EE30EE30EE20E62
:1052C000E20EE20EE10EE10EE10EE10EE00EE00E66
:1052D000E00EDF0EDF0EDF0EDE0EDE0EDE0EDD0E6A
:1052E000DD0EDD0EDC0EDC0EDC0EDB0EDB0EDB0E6F
:1052F000DA0EDA0ED90ED90ED90ED80ED80ED80E77
:10530000D70ED70ED70ED60ED60ED60ED50ED50E7C
:10531000D50ED40ED40ED40ED30ED30ED30ED20E81
:10532000D20ED20ED10ED10ED10ED00ED00ED00E86
:10533000CF0ECF0ECE0ECE0ECE0ECD0ECD0ECD0E8E
:10534000CC0ECC0ECC0ECB0ECB0ECB0ECA0ECA0E94
:10535000CA0EC90EC90EC80EC80EC80EC70EC70E9B
:10536000C70EC60EC60EC60EC50EC50EC40EC40EA2
:10537000C40EC30EC30EC30EC20EC20EC20EC10EA9
:10538000C10EC00EC00EC00EBF0EBF0EBF0EBE0EB1
:10539000BE0EBE0EBD0EBD0EBC0EBC0EBC0EBB0EB8
:1053A000BB0EBB0EBA0EBA0EB90EB90EB90EB80EC0
:1053B000B80EB80EB70EB70EB60EB60EB60EB50EC8
:1053C000B50EB40EB40EB40EB30EB30EB30EB20ED1
:1053D000B20EB10EB10EB10EB00EB00EB00EAF0ED9
:1053E000AF0EAE0EAE0EAE0EAD0EAD0EAC0EAC0EE2
:1053F000AC0EAB0EAB0EAA0EAA0EAA0EA90EA90EEB
:10540000A80EA80EA80EA70EA70EA60EA60EA60EF4
:10541000A50EA50EA50EA40EA40EA30EA30EA30EFC
:10542000A20EA20EA10EA10EA00EA00EA00E9F0E07
:105430009F0E9E0E9E0E9E0E9D0E9D0E9C0E9C0E11
:105440009C0E9B0E9B0E9A0E9A0E9A0E990E990E1A
:10545000980E980E970E970E970E960E960E950E26
:10546000950E950E940E940E930E930E920E920E30
:10547000920E910E910E900E900E900E8F0E8F0E3A
:105480008E0E8E0E8D0E8D0E8D0E8C0E8C0E8B0E46
:105490008B0E8A0E8A0E8A0E890E890E880E880E51
:1054A000870E870E870E860E860E850E850E840E5D
:1054B000840E830E830E830E820E820E810E810E69
:1054C000800E800E800E7F0E7F0E7E0E7E0E7D0E75
:1054D0007D0E7C0E7C0E7C0E7B0E7B0E7A0E7A0E81
:1054E000790E790E780E780E770E770E770E760E8F
:1054F000760E750E750E740E740E730E730E720E9C
:10550000720E720E710E710E700E700E6F0E6F0EA7
:105510006E0E6E0E6D0E6D0E6D0E6C0E6C0E6B0EB5
:105520006B0E6A0E6A0E690E690E680E680E670EC3
:10553000670E660E660E650E650E650E640E640ED1
:10554000630E630E620E620E610E610E600E600EDF
:105550005F0E5F0E5E0E5E0E5D0E5D0E5C0E5C0EEF
:105560005B0E5B0E5A0E5A0E5A0E590E590E580EFD
:10557000580E570E570E560E560E550E550E540E0B
:10558000540E530E530E520E520E510E510E500E1B
:10559000500E4F0E4F0E4E0E4E0E4D0E4D0E4C0E2B
:1055A0004C0E4B0E4B0E4A0E4A0E490E490E480E3B
:1055B000480E470E470E460E460E450E450E440E4B
:1055C000440E430E430E420E420E410E410E400E5B
:1055D0003F0E3F0E3E0E3E0E3D0E3D0E3C0E3C0E6F
:1055E0003B0E3B0E3A0E3A0E390E390E380E380E7F
:1055F000370E370E360E360E350E350E340E330E90
:10560000330E320E320E310E310E300E300E2F0EA2
:105610002F0E2E0E2E0E2D0E2D0E2C0E2B0E2B0EB3
:105620002A0E2A0E290E290E280E280E270E270EC6
:10563000260E250E250E240E240E230E230E220EDA
:10564000220E210E210E200E1F0E1F0E1E0E1E0EEC
:105650001D0E1D0E1C0E1C0E1B0E1A0E1A0E190E00
:10566000190E180E180E170E170E160E150E150E13
:10567000140E140E130E130E120E110E110E100E28
:10568000100E0F0E0F0E0E0E0D0E0D0E0C0E0C0E3C
:105690000B0E0B0E0A0E090E090E080E080E070E51
:1056A000070E060E050E050E040E040E030E020E66
:1056B000020E010E010E000EFF0DFF0DFE0DFE0D80
:1056C000FD0DFD0DFC0DFB0DFB0DFA0DFA0DF90D99
:1056D000F80DF80DF70DF70DF60DF50DF50DF40DB0
:1056E000F40DF30DF20DF20DF10DF10DF00DEF0DC6
:1056F000EF0DEE0DED0DED0DEC0DEC0DEB0DEA0DDE
:10570000EA0DE90DE90DE80DE70DE70DE60DE50DF4
:10571000E50DE40DE40DE30DE20DE20DE10DE10D0B
:10572000E00DDF0DDF0DDE0DDD0DDD0DDC0DDB0D24
:10573000DB0DDA0DDA0DD90DD80DD80DD70DD60D3C
:10574000D60DD50DD50DD40DD30DD30DD20DD10D54
:10575000D10DD00DCF0DCF0DCE0DCD0DCD0DCC0D6E
:10576000CB0DCB0DCA0DCA0DC90DC80DC80DC70D87
:10577000C60DC60DC50DC40DC40DC30DC20DC20DA1
:10578000C10DC00DC00DBF0DBE0DBE0DBD0DBC0DBC
:10579000BC0DBB0DBA0DBA0DB90DB80DB80DB70DD6
:1057A000B60DB60DB50DB40DB40DB30DB20DB20DF1
:1057B000B10DB00DB00DAF0DAE0DAD0DAD0DAC0D0D
:1057C000AB0DAB0DAA0DA90DA90DA80DA70DA70D29
:1057D000A60DA50DA50DA40DA30DA20DA20DA10D45
:1057E000A00DA00D9F0D9E0D9E0D9D0D9C0D9B0D62
:1057F0009B0D9A0D990D990D980D970D960D960D7F
:10580000950D940D940D930D920D910D910D900D9C
:105810008F0D8F0D8E0D8D0D8C0D8C0D8B0D8A0DBA
:105820008A0D890D880D870D870D860D850D840DD8
:10583000840D830D820D820D810D800D7F0D7F0DF6
:105840007E0D7D0D7C0D7C0D7B0D7A0D790D790D16
:10585000780D770D760D760D750D740D730D730D36
:10586000720D710D700D700D6F0D6E0D6D0D6D0D56
:105870006C0D6B0D6A0D6A0D690D680D670D670D76
:10588000660D650D640D630D630D620D610D600D98
:10589000600D5F0D5E0D5D0D5C0D5C0D5B0D5A0DB9
:1058A000590D590D580D570D560D550D550D540DDB
:1058B000530D520D520D510D500D4F0D4E0D4E0DFD
:1058C0004D0D4C0D4B0D4A0D4A0D490D480D470D20
:1058D000460D460D450D440D430D420D420D410D43
:1058E000400D3F0D3E0D3D0D3D0D3C0D3B0D3A0D68
:1058F000390D390D380D370D360D350D340D340D8C
:10590000330D320D310D300D300D2F0D2E0D2D0DAF
:105910002C0D2B0D2B0D2A0D290D280D270D260DD5
:10592000260D250D240D230D220D210D200D200DFA
:105930001F0D1E0D1D0D1C0D1B0D1B0D1A0D190D20
:10594000180D170D160D150D150D140D130D120D47
:10595000110D100D0F0D0E0D0E0D0D0D0C0D0B0D6F
:105960000A0D090D080D070D070D060D050D040D97
:10597000030D020D010D000D000DFF0CFE0CFD0CC2
:10598000FC0CFB0CFA0CF90CF80CF80CF70CF60CF0
:10599000F50CF40CF30CF20CF10CF00CEF0CEF0C1A
:1059A000EE0CED0CEC0CEB0CEA0CE90CE80CE70C43
:1059B000E60CE50CE50CE40CE30CE20CE10CE00C6D
:1059C000DF0CDE0CDD0CDC0CDB0CDA0CDA0CD90C99
:1059D000D80CD70CD60CD50CD40CD30CD20CD10CC3
:1059E000D00CCF0CCE0CCD0CCC0CCB0CCB0CCA0CF1
:1059F000C90CC80CC70CC60CC50CC40CC30CC20C1B
:105A0000C10CC00CBF0CBE0CBD0CBC0CBB0CBA0C4A
:105A1000B90CB80CB70CB60CB50CB40CB40CB30C78
:105A2000B20CB10CB00CAF0CAE0CAD0CAC0CAB0CA2
:105A3000AA0CA90CA80CA70CA60CA50CA40CA30CD2
:105A4000A20CA10CA00C9F0C9E0C9D0C9C0C9B0C02
:105A50009A0C990C980C970C960C950C940C930C32
:105A6000920C910C900C8F0C8E0C8D0C8C0C8B0C62
:105A70008A0C890C880C870C860C850C840C830C92
:105A8000810C800C7F0C7E0C7D0C7C0C7B0C7A0CCA
:105A9000790C780C770C760C750C740C730C720CFA
:105AA000710C700C6F0C6E0C6D0C6C0C6B0C690C2B
:105AB000680C670C660C650C640C630C620C610C62
:105AC000600C5F0C5E0C5D0C5C0C5B0C590C580C94
:105AD000570C560C550C540C530C520C510C500CCA
